:020000040800F2
:10000000080B0020A1010008012B0008612800084E
:10001000FD2A000835060008E53100080000000050
:10002000000000000000000000000000072B000896
:10003000CD06000800000000052B0008092B000871
:10004000BB010008BB010008BB010008BB010008A0
:10005000BB010008BB010008CF060008BB01000877
:10006000BB010008BB010008BB010008BB01000880
:10007000BB010008BB010008BB010008BB01000870
:10008000BB010008BB010008BB010008BB01000860
:100090006506000875060008BB010008BB010008E2
:1000A000BB010008D92B0008BB010008BB010008F8
:1000B000BB010008BB010008BB010008BB01000830
:1000C000BB010008BB010008BB010008BB01000820
:1000D000BB010008B5310008BB010008C5310008AC
:1000E000BB010008BB010008BB010008BB01000800
:1000F000BB010008BB010008BB010008BB010008F0
:10010000BB010008BB010008BB010008BB010008DF
:10011000BB010008BB010008BB010008BB010008CF
:10012000BB010008BB010008BB010008BB010008BF
:10013000BB010008BB010008BB010008BB010008AF
:10014000BB010008BB010008BB010008BB0100089F
:10015000BB010008BB010008BB010008D531000845
:10016000BB010008BB010008BB010008BB0100087F
:10017000BB010008BB010008BB0100080000000033
:10018000BB010008BB010008DFF810D000F040FA06
:1001900000480047393A0008AFF30080080B002000
:1001A0000648804706480047FEE7FEE7FEE7FEE711
:1001B000FEE7FEE7FEE7FEE7FEE7FEE7C52B0008E9
:1001C000890100082DE9F05F0546002092469B4614
:1001D00088460646814640241BE02846414647465D
:1001E000224600F070F953465A46C01A914110D386
:1001F00011461846224600F057F92D1A67EB010800
:100200004F4622460120002100F04EF917EB00096D
:100210004E41201EA4F10104DFDC484631462A4647
:100220004346BDE8F09FD2B201E000F8012B491E21
:10023000FBD270470022F6E710B513460A46044683
:100240001946FFF7F0FF204610BD2DE9FE4F81EA69
:10025000030404F0004421F0004100944FF0000B2F
:1002600023F0004350EA01045ED052EA03045BD05D
:10027000C3F30A54C1F30A552C44A4F2F334019495
:10028000A0FB0254C1F3130141F48011C3F3130323
:1002900043F4801301FB024400FB034E840A970AD7
:1002A00044EA815447EA8357A4FB076802958D0A04
:1002B00005FB07854FEA932C04FB0C542705029D90
:1002C0004FEA065847EA1637B5EB08056EEB070C00
:1002D000870E920E47EA811742EA8312A7FB0201BA
:1002E000B6EB0B0164EB00042B0D43EA0C335E18F4
:1002F00044EB1C50DA465146E7FB0201C5F31304F8
:100300004FEA0B3343EA14534FEA0432019C43EAA9
:100310000603A4F10C040294009CCDE900B400F0A3
:1003200028F903B0BDE8F08F00200146F9E72DE978
:10033000F04D81EA030404F0004B21F0004514461F
:100340004FF0000A23F0004150EA050220D054EAA1
:1003500001021DD0C5F30A570246C5F31303C1F3CA
:100360001300C1F30A5640F4801543F48013A7EB41
:100370000608101BD64608F2FD3873EB050002D3C1
:1003800008F1010801E092185B41B8F1000F03DAAF
:1003900000200146BDE8F08D00204FF48011064694
:1003A00084460EE0171B73EB050705D3121B63EBA6
:1003B000050306434CEA010C49084FEA3000921845
:1003C0005B4150EA0107EDD152EA030012D082EA04
:1003D000040083EA0501084305D0101BAB4106D297
:1003E0000122002306E000224FF0004302E06FF0FC
:1003F000010253101AEB06004CEB085110EB0A00F7
:1004000041EB0B01BDE8F04D00F0A4B870B5C1F3AD
:100410000A5201F000450024C1F3130140F2FF33FA
:1004200041F480119A4201DA002070BD40F233435A
:100430009A42A2F2334203DC524200F044F800E058
:1004400090402C43F1D0404270BD00F0004230F0AB
:1004500000400AD0C10D01F56071C0F3160042EAF8
:100460000151C20840071143704700200146704700
:1004700001F0004330B421F0004150EA010206D0FF
:100480000A0DA2F56072C1F31301002A02DC30BC30
:1004900000207047440F44EAC104C100E01830BC9A
:1004A00000EBC25000F01FB8202A04DB203A00FA0B
:1004B00002F1002070479140C2F1200320FA03F3BB
:1004C000194390407047202A04DB203A21FA02F0B9
:1004D0000021704721FA02F3D040C2F1200291407E
:1004E0000843194670470029A8BF7047401C4900BF
:1004F00008BF20F00100704710B4B0FA80FC00FA89
:100500000CF050EA010404BF10BC704749B1CCF1B3
:10051000200421FA04F411FA0CF118BF012121433F
:100520000843A3EB0C01CB1D4FEA00614FEA1020FA
:1005300042BF002010BC704700EBC350104400299C
:10054000A4BF10BC7047401C490008BF20F0010048
:1005500010BC704710B5141E73F1000408DA401C7B
:1005600041F1000192185B411A4301D120F00100D2
:1005700010BD2DE9F04D92469B4611B1B1FA81F2C2
:1005800002E0B0FA80F220329046FFF78DFF044679
:100590000F4640EA0A0041EA0B0153465A46084317
:1005A00013D0114653EA010019D0C8F14002504659
:1005B000FFF789FF05460E46504659464246FFF76B
:1005C00073FF084305D0012004E020463946BDE80A
:1005D000F08D0020054346EAE0762C4337430A9825
:1005E0006305E40AA0EB08000022FD0A44EA475430
:1005F0000A3002D500200146E9E7010510196941DA
:10060000DDE9084500196941BDE8F04DA2E70000A9
:10061000064C074D06E0E06840F0010394E807004F
:1006200098471034AC42F6D3FFF7B2FD48440008B7
:100630006844000800BFFEE710B5012007490862C2
:10064000486100200861086048608860C86088616F
:100650000120C861024800F001F910BD0C0500201E
:100660006805002010B5024800F048FA10BD0000EF
:100670006805002010B5024800F040FA10BD0000E7
:100680006805002070B504460D460C4804604460BF
:1006900000200A498860C86008200861084800688E
:1006A0000849884207D1084B2A460449044800F00B
:1006B00029F8002070BD0120FCE70000340500206F
:1006C00068050020006400409C000020704710B5C1
:1006D000012000F069FD10BD704710B5024692F888
:1006E0002030012B01D0022B06D11068406908434D
:1006F00014686061002010BD506A40F48020506290
:100700000120F8E7F0B504460D461E4694F8207027
:1007100020688368A86800B900E000BF012F01D0FD
:10072000022F7CD103F0806030B903F0006018B96B
:1007300003F08050002873D0C3F30161022905D96A
:10074000606A40F4000060620120F0BD0120884032
:100750003060A86860B9B5F800C0E86840EA4C5C51
:10076000206800F5C07000EB0110C0F800C00FE079
:10077000D5E901C040EACC00D5F80CC040EA0C0035
:10078000D4F800C00CF5C07C0CEB011CCCF80000C8
:10079000D5F810C0206800F5C07000EB0110C0F85B
:1007A00004C0287D01280ED1206800F5C07000EB40
:1007B0000110406840F4807C206800F5C07000EBB8
:1007C0000110C0F804C0D079000692F806C040EAD3
:1007D0000C4092F805C040EA0C2C10794CEA000C51
:1007E000206800F5C07000EB0110C0F80CC0D07894
:1007F000000692F802C040EA0C4092F801C040EABC
:100800000C2092F800C040EA0C00D4F800C00CF5AF
:10081000C07C0CEB011CCCF80800206801E016E05D
:100820000FE000F5C07000EB0110006840F0010C13
:10083000206800F5C07000EB0110C0F800C0002077
:1008400083E7606A40F40010606201207DE7606A1F
:1008500040F480206062012077E70000F0B5044694
:100860000A46216894F82050012D01D0022D7ED136
:10087000424901F50071086840F00100086008680D
:1008800020F47C5008600868566A40EA0620086038
:10089000107D00F01F06012000FA06F3C869984396
:1008A000C861A1F50071D069C8B9D1F80C029843AC
:1008B000C1F80C02908880B2968940EA064601F59C
:1008C0001070576940F83760108880B2168940EA86
:1008D000064601F51070576900EBC7004660D06905
:1008E000012819D1D1F80C021843C1F80C029088E4
:1008F00080B2168840EA064601F51070576940F844
:100900003760908980B2168940EA064601F510707A
:10091000576900EBC7004660906928B9D1F8040216
:100920009843C1F8040204E0D1F804021843C1F866
:100930000402106928B9D1F814029843C1F81402CE
:1009400004E0D1F814021843C1F81402106A012817
:1009500004D1D1F81C021843C1F81C02D1F80002DE
:1009600020F00100C1F800020020F0BDFFE7606A3E
:1009700040F4802060620120F7E70000006400403E
:10098000704770B5044694F82050012D01D0022D17
:100990007DD151B92068C06800F0030080B9606A59
:1009A00040F400106062012070BD2068006900F012
:1009B000030028B9606A40F4001060620120F3E788
:1009C000206800F5D87000EB0110006800F004000A
:1009D0009060906840B9206800F5D87000EB011075
:1009E0000068400D106007E0206800F5D87000EB4B
:1009F00001100068C0085060206800F5D87000EB56
:100A00000110006800F00200D060206800F5D87086
:100A100000EB0110406800F00F001061206800F545
:100A2000D87000EB0110406800F47F40000A90612C
:100A3000206800F5D87000EB01104068000C506190
:100A4000206800F5D87000EB0110806818702068ED
:100A500000F5D87000EB0110806800F47F40000AB8
:100A60005870206800F5D87000EB0110806800F421
:100A70007F00000C9870206800F5D87000EB011022
:100A80008068000ED870206800F5D87000E02FE074
:100A900000EB0110C0681871206800F5D87000EBF9
:100AA0000110C06800F47F40000A5871206800F50A
:100AB000D87000EB0110C06800F47F00000C987142
:100AC000206800F5D87000EB0110C068000ED871E6
:100AD00031B92068C06840F020002668F06005E069
:100AE0002068006940F020002668306100205BE744
:100AF000606A40F480206062012055E72DE9F05FD4
:100B000004460025206846692068D0F804902068D3
:100B100087682068D0F80CA02068D0F810B0206852
:100B2000D0F8188006F00100002855D007F0010029
:100B3000C0B101202168886007F0020018B120468A
:100B400000F08DFA0EE007F0040010B145F40065E6
:100B500008E007F0080010B145F4805502E0204697
:100B600000F07CFA07F48070C8B14FF480702168FF
:100B7000886007F4007018B1204600F072FA0EE0A9
:100B800007F4806010B145F4005508E007F40060F8
:100B900010B145F4804502E0204600F061FA07F408
:100BA0008030C8B14FF480302168886007F400308D
:100BB00018B1204600F057FA0EE007F4802010B17B
:100BC00045F4004508E007F4002010B145F48035F5
:100BD00002E0204600F046FA06F0080038B10AF0BC
:100BE000100020B145F4007510202168C86006F09F
:100BF000040040B10AF0080028B108202168C8604C
:100C0000204600F0B1F906F0020038B12068C06853
:100C100000F0030010B1204600F0A8F906F04000F3
:100C200038B10BF0100020B145F480651020216828
:100C3000086106F0200040B10BF0080028B1082040
:100C400021680861204600F0D7F906F0100038B19D
:100C50002068006900F0030010B1204600F0CDF9D3
:100C600006F4003040B109F0100028B110202168CE
:100C70004860204600F0C2F906F4803040B109F027
:100C8000080028B1082021684860204600F0ECF9EF
:100C900006F4004088B309F0040078B306F48070CD
:100CA00020B108F0010008B145F0010506F400701C
:100CB00020B108F0020008B145F0020506F480609A
:100CC00020B108F0040008B145F0040506F4006006
:100CD000A0B108F0700088B108F07000402817D06B
:100CE00006DC10280BD020280CD0302819D10CE0BD
:100CF000502810D0602814D110E01DE019E045F014
:100D000008050FE045F010050CE045F0200509E06E
:100D100045F0400506E045F0800503E045F48075A8
:100D200000E000BF00BF2068806920F070002168EB
:100D300088610420216848602DB1606A28436062A0
:100D40002046FFF71DFEBDE8F09F70B504460CB9C4
:100D5000012070BD94F8200010B9204600F0B0F8D2
:100D60002068006840F001002168086000F03CFB4A
:100D700005460DE000F038FB401B0A2808D9606AE0
:100D800040F400306062052084F820000120E0E794
:100D90002068406800F001000028EBD0206800685F
:100DA00020F002002168086000F01EFB05460DE0FF
:100DB00000F01AFB401B0A2808D9606A40F4003092
:100DC0006062052084F820000120C2E720684068A6
:100DD00000F002000028EBD1207E012806D1206817
:100DE000006840F080002168086005E02068006825
:100DF00020F0800021680860607E012806D120680C
:100E0000006840F040002168086005E02068006844
:100E100020F0400021680860A07E012806D12068EB
:100E2000006840F020002168086005E02068006844
:100E300020F0200021680860E07E012806D12068AB
:100E4000006820F010002168086005E02068006854
:100E500040F0100021680860207F012806D120683A
:100E6000006840F008002168086005E0206800681C
:100E700020F0080021680860607F012806D1206802
:100E8000006840F004002168086005E02068006800
:100E900020F0040021680860D4E9020108432169B8
:100EA0000843616908436168491E08432168C861B5
:100EB00000206062012084F82000002049E7000043
:100EC00010B586B00446142101A8FFF7B3F92349F1
:100ED000206888423FD100BF002000902048006871
:100EE00040F000701E4908600846006800F000707D
:100EF000009000BF00BF00BF0020009018481038CD
:100F0000006840F00800164910390860084600687B
:100F100000F00800009000BF00BF032001900220F5
:100F2000029000200390032004900920059001A95D
:100F30000C4800F047F900220121142000F0DEFAED
:100F4000142000F0CBFA00221146152000F0D6FA4A
:100F5000152000F0C3FA06B010BD00000064004088
:100F600040380240000C02407047000010B58AB0C3
:100F7000044601AB03AA00212046FFF702FD80BB17
:100F800040F28111039888422BD19DF804009DF80E
:100F9000051040EA0120404200B2134908809DF844
:100FA00006009DF8071040EA012000B20F490880B2
:100FB0000D48B0F900000A2190FBF1F000EE100A94
:100FC000B8EEC00A0A4880ED000A0848B0F90000EF
:100FD00090FBF1F000EE100AB8EEC00A054880ED73
:100FE000000A0AB010BD0000C4000020C6000020A6
:100FF000C8000020CC00002070477047704770B5D3
:10100000044694F82000012822D1022084F8200010
:101010002068006820F001002168086000F0E4F911
:1010200005460DE000F0E0F9401B0A2808D9606A87
:1010300040F400306062052084F82000012070BD7B
:101040002068406800F001000028EBD16062F6E7FC
:10105000606A40F4002060620120F0E7704770474A
:101060007047704770477047704770B50446A56D6C
:1010700000F0BAF9064694F83500022808D080201E
:10108000606500BF002084F8340000BF012070BDFF
:101090002068006820F01600216808602068406918
:1010A00020F0800021684861206C08B9A06C28B14C
:1010B0002068006820F00800216808602068006847
:1010C00020F001002168086010E000F08DF9801B1D
:1010D00005280BD920206065032084F8350000BF67
:1010E000002084F8340000BF0320D0E720680068A7
:1010F00000F001000028E8D194F85C103F208840FF
:10110000A860012084F8350000BF002084F8340076
:1011100000BF00BFBBE7014691F83500022803D0AD
:101120008020486501207047052081F83500086857
:10113000006820F001000A6810600020F3E700005A
:1011400070B5044600F050F906462546681C10B1FB
:1011500004480078054400BF00F046F9801BA8420F
:10116000FAD370BDD800002010B504464FF480714A
:101170000A4800F021F901280ED1C102084800F008
:1011800023F908480078401C064908700846007892
:10119000022801DD0020087010BD000000000240A0
:1011A000001C02401E00002010B5044604480068E0
:1011B000204020B1024804602046FFF7D5FF10BD53
:1011C000143C0140F8B502460B46002500240020DF
:1011D0000021D6E0012606FA01F51E6806EA05049C
:1011E000AC4274D11E7906F00306012E04D01E799C
:1011F00006F00306022E13D190684F000326BE406E
:10120000B0434F00DE68BE40304390605068012616
:101210008E40B0431E79C6F300168E4030435060B6
:101220001E7906F00306032E09D0D0684F0003266E
:10123000BE40B0434F009E68BE403043D0601E7930
:1012400006F00306022E13D1CF0802F1200656F84D
:1012500027004E07F70E0F26BE40B0434F07FF0E84
:101260001E69BE403043CF0802F1200646F8270031
:1012700010684F000326BE40B0431E7906F00306F7
:101280004F00BE40304310605E6806F44036002ECA
:1012900076D000BF002600963C4E366846F4804665
:1012A0003A4F3E603E46366806F48046009600BFE0
:1012B00000BF374E8F0856F827008E07370F0F26CE
:1012C000BE40B043334EB24202D1002624E057E084
:1012D000314EB24201D101261EE0304EB24201D160
:1012E000022619E02E4EB24201D1032614E02D4E03
:1012F000B24201D104260FE02B4EB24201D10526A5
:101300000AE02A4EB24201D1062605E0284EB2423A
:1013100001D1072600E008268F073F0FBE4030436B
:101320001B4E8F0846F82700224E3068A0435E68A7
:1013300006F4801606B120431E4E3060361D30681C
:10134000A0435E6806F4001606B12043194E361D10
:101350003060184E361F3068A0435E6806F40036D1
:1013600006B12043134E361F3060361F3068A0434D
:101370005E6806F4803606B120430E4E083E3060AB
:10138000491C1029FFF426AFF8BD00004438024084
:1013900008380140000002400004024000080240FA
:1013A000000C0240001002400014024000180240ED
:1013B000001C0240083C0140024613690B400BB17F
:1013C000012000E00020704710B5426921EA0203C5
:1013D00002EA010443EA0443836110BD0AB181615A
:1013E00001E00B048361704701480068704700000A
:1013F000D0000020034800680349097808440149E7
:1014000008607047D0000020D800002010B50D48BB
:10141000006840F400700B4908600846006840F41A
:10142000806008600846006840F48070086003200F
:1014300000F0A2F80F2000F007F800F02BF80020D1
:1014400010BD0000003C024070B504460E48007814
:101450004FF47A71B1FBF0F00C490968B1FBF0F57B
:10146000284600F02BFC08B1012070BD102C07D2DB
:1014700000222146501E00F041F80548046001E0BA
:101480000120F2E70020F0E7D8000020DC00002077
:10149000D400002008B500BF002000900E4800686E
:1014A00040F480400C4908600846006800F4804021
:1014B000009000BF00BF00BF00200090081F006820
:1014C00040F08050091F08600846006800F0805016
:1014D000009000BF00BF08BD4438024001460846E6
:1014E000002809DB00F01F0301229A4043099B00FA
:1014F00003F1E023C3F8002100BF70472DE9F05F3E
:1015000080460D461646002701F07EFE0746394606
:101510002A46334601F00700C0F1070ABAF1040F6A
:1015200002D94FF0040A01E0C0F1070AD14600F1E8
:10153000040ABAF1070F02D24FF0000A01E0A0F14D
:10154000030AD4464FF0010A0AFA09FAAAF1010A7D
:101550000AEA020A0AFA0CFA4FF0010B0BFA0CFB2A
:10156000ABF1010B0BEA030B4AEA0B0421464046A0
:1015700001F052FEBDE8F09F00BF00F00702064BED
:1015800019684FF6FF031940044B0B4343EA02214D
:10159000014B196000BF70470CED00E00000FA0538
:1015A00070B504460D460CB9012070BD584800685E
:1015B00000F00700A84209D255490D70084600689E
:1015C00000F00700A84201D00120EEE7207800F0EB
:1015D000020002281DD1207800F00400042805D163
:1015E0004C48006840F4E0504A490860207800F018
:1015F0000800082805D14748006840F46040454984
:1016000008604448006820F0F000A16808434149A0
:101610000860207800F00100A8B36068012807D1B5
:101620003C4808380068C0F34040B8B90120BCE726
:101630006068022802D06068032807D1354808385E
:101640000068C0F3406048B90120AEE7314808386F
:101650000068C0F3400008B90120A6E72D480068E3
:1016600020F00300616808432A490860FFF7BCFEC8
:10167000064609E0FFF7B8FE801B41F28831884238
:1016800002D9032091E707E02248006800F00C002F
:101690006168B0EB810FEDD11D48006800F00700D4
:1016A000A84209D91A490D700846006800F00700E1
:1016B000A84201D0012078E7207800F00400042837
:1016C00007D11448006820F4E050E168084311494C
:1016D0000860207800F00800082808D10D4800684C
:1016E00020F46040216940EAC1000A49086000F026
:1016F0003FF808490968C1F30311074A515CC84023
:101700000649086006480068FFF79EFE00204CE787
:10171000003C02400838024030440008DC00002051
:10172000D40000200148006870470000DC00002061
:1017300000B5FFF7F7FF04490968C1F38221034AA6
:10174000515CC84000BD0000083802404044000819
:1017500000B5FFF7E7FF04490968C1F34231034AC6
:10176000515CC84000BD00000838024040440008F9
:101770002DE9F047002400250026A14625480068F1
:1017800000F00C0020B1042805D008283AD105E06B
:10179000DFF8849039E0DFF8849036E01D48001FC0
:1017A000006800F03F041B48001F006800F4800040
:1017B00078B11A481749091F0968C1F38811A0FBBD
:1017C00001700146224600233846FEF7FBFC054621
:1017D0000EE011480F49091F0968C1F38811A0FBE9
:1017E00001700146224600233846FEF7EBFC054611
:1017F0000848001F0068C0F30140401C4600B5FBCC
:10180000F6F902E0DFF8109000BF00BF4846BDE8DF
:10181000F0870000083802400024F400001BB700E5
:10182000F8B504460CB90120F8BD207800F001009D
:10183000002874D0F948006800F00C0004280DD08E
:10184000F648006800F00C00082813D1F348001F88
:10185000006800F48000B0F5800F0BD1EF48083825
:101860000068C0F34040002859D06068002856D175
:101870000120D9E700BF6068B0F5803F08D1E74894
:101880000838006840F48030E449083908601EE0F8
:101890006068B0F5A02F0DD1E0480838006840F42A
:1018A0008020DE49083908600846006840F480302E
:1018B00008600CE0D9480838006820F48030D74927
:1018C000083908600846006820F48020086000BFDE
:1018D000606890B1FFF788FD054606E0FFF784FDDC
:1018E000401B642801D903209EE7CC4808380068D3
:1018F000C0F340400028F1D011E0FFF775FD054628
:1019000006E0FFF771FD401B642801D903208BE737
:10191000C24808380068C0F340400028F1D1207860
:1019200000F0020002285FD1BC48006800F00C0003
:1019300058B1BA48006800F00C0008281CD1B7481C
:10194000001F006800F48000B0B9B448083800688F
:10195000C0F3400020B1E068012801D0012063E716
:10196000AE480838006820F0F800216940EAC1005C
:10197000AA490839086037E0E06800B30120A849A7
:101980000860FFF731FD054606E0FFF72DFD401B1F
:10199000022801D9032047E7A04808380068C0F3AF
:1019A00040000028F1D09D480838006820F0F80079
:1019B000216940EAC10099490839086014E0002013
:1019C00097490860FFF710FD054606E0FFF70CFD9C
:1019D000401B022801D9032026E7904808380068F8
:1019E000C0F340000028F1D1207800F0080008285A
:1019F0002CD16069A8B101208A490860FFF7F4FC86
:101A0000054606E0FFF7F0FC401B022801D9032041
:101A10000AE782486C300068C0F340000028F1D02B
:101A200014E000207F490860FFF7DEFC054606E071
:101A3000FFF7DAFC401B022801D90320F4E67748BF
:101A40006C300068C0F340000028F1D1207800F02D
:101A50000400042870D1002770483830006800F076
:101A6000805090B900BF002000906C48383000686A
:101A700040F080506949383108600846006800F03D
:101A80008050009000BF00BF01276748006800F445
:101A90008070B0B96448006840F4807062490860A2
:101AA000FFF7A2FC054606E0FFF79EFC401B02285C
:101AB00001D90320B8E65C48006800F48070002873
:101AC000F2D000BFA068012808D1544868300068EF
:101AD00040F001005149683108601DE0A068052808
:101AE0000DD14E486830006840F004004B49683121
:101AF00008600846006840F0010008600CE04748B4
:101B00006830006820F001004449683108600846E8
:101B1000006820F00400086000BFA068A8B1FFF7CB
:101B200063FC054609E0FFF75FFC401B41F288318A
:101B3000884202D9032077E626E0384868300068FA
:101B4000C0F340000028EED013E0FFF74DFC05463F
:101B500008E0FFF749FC401B41F28831884201D977
:101B6000032061E62D4868300068C0F3400000287B
:101B7000EFD1012F07D129483830006820F080507C
:101B800026493831086000BFA069002845D02348A5
:101B9000006800F00C0008285DD0A069022845D13B
:101BA00000201F490866FFF71FFC054606E0FFF707
:101BB0001BFC401B022801D9032035E617480838D2
:101BC0000068C0F340600028F1D1D4E90701084360
:101BD000616A40EA81110122A06AC2EB500041EA29
:101BE00000412C20005D41EA00600C49091F08609B
:101BF00001200B490866FFF7F7FB054606E0FFF7F3
:101C0000F3FB401B022801D903200DE603480838E6
:101C10000068C0F340600028F1D049E00838024075
:101C200000004742800E47420070004000202149DA
:101C30000866FFF7D9FB054606E0FFF7D5FB401B1A
:101C4000022801D90320EFE51B480068C0F340607B
:101C50000028F2D12CE0A069012800D1E4E5164863
:101C6000001D0668A069012820D006F48001E06903
:101C700081421BD106F03F01206A814216D147F60E
:101C8000C0703040616AB0EB811F0FD106F4403163
:101C90000122A06AC2EB5000B1EB004F06D106F062
:101CA00070612C20005DB1EB006F01D00120BBE51D
:101CB0000020B9E5000047420038024070B50446F4
:101CC0002546681EB0F1807F01D301200FE0681E19
:101CD0004FF0E02148610F214FF0FF3001F09CFAF6
:101CE00000204FF0E021886107200861002070BDCE
:101CF0007047704730B502460B4600BF92F83C0073
:101D0000012801D1022030BD012082F83C0000BF33
:101D1000022082F83D00106844681068816824F051
:101D200070041868044310684460184D1068A84295
:101D30001BD01068B0F1804F17D0154D1068A84225
:101D400013D0144D1068A8420FD0134D1068A8424C
:101D50000BD0124D1068A84207D0114D1068A84250
:101D600003D0104D1068A84205D121F080015868B9
:101D7000014310688160012082F83D0000BF00200F
:101D800082F83C0000BF00BFBDE70000000001403A
:101D90000004004000080040000C00400004014026
:101DA000004001400018004010B504460CB9012065
:101DB00010BD94F83D0028B9002084F83C0020466E
:101DC00000F026F8022084F83D00211D206800F074
:101DD00011FF012084F8460000BF84F83E00012175
:101DE0003F200155402001554120015500BF00BF53
:101DF000012084F84200432001554420015545202C
:101E0000015500BF012084F83D000020D0E700000C
:101E100038B504460E492068884217D100BF00201B
:101E200000900C48006840F001000A49086008462C
:101E3000006800F00100009000BF00BF00221146C2
:101E40001920FFF75BFB1920FFF748FB38BD0000A6
:101E50000000014044380240014691F83D0001284D
:101E600001D001207047022081F83D000868C06859
:101E700040F001000B68D8601A4B086898421BD0EC
:101E80000868B0F1804F17D0174B0868984213D0FC
:101E9000164B086898420FD0154B086898420BD033
:101EA000144B0868984207D0134B0868984203D037
:101EB000124B086898420CD10868806800F007024D
:101EC000062A0CD00868006840F001000B68186012
:101ED00005E00868006840F001000B681860002009
:101EE000C0E700000000014000040040000800407E
:101EF000000C004000040140004001400018004078
:101F00002DE9F04104460D46002700BF94F83C003F
:101F1000012802D10220BDE8F081012084F83C00B4
:101F200000BF022084F83D002068866826F077060E
:101F300026F47F46206886602868502833D00CDC61
:101F4000202850D004DC00284BD0102851D149E083
:101F5000302849D040284CD139E060282DD0702855
:101F600007D0B0F5805F03D0B0F5005F41D10DE040
:101F700041E0D5E902136A68206800F0A7FE2068F6
:101F8000866846F077062068866034E0D5E902135B
:101F90006A68206800F09AFE2068806840F48040FB
:101FA0002168886027E0EA686968206800F0A2FE7E
:101FB0005021206800F095FE1DE0EA6869682068FD
:101FC00000F0ABFE6021206800F08BFE13E0EA68B1
:101FD0006968206800F08EFE4021206800F081FED4
:101FE00009E000BF00BF00BF2968206800F079FE4B
:101FF00001E0012700BF00BF012084F83D0000BFC1
:10200000002084F83C0000BF384684E7704710B5D4
:10201000044620680069C0F34000D8B12068C06859
:10202000C0F34000B0B16FF00200216808610120E8
:1020300020772068806900F0030018B12046FFF780
:10204000E5FF05E0204600F0ADF8204600F0ABF8D3
:102050000020207720680069C0F38000D8B1206894
:10206000C068C0F38000B0B16FF00400216808615F
:10207000022020772068806900F4407018B1204663
:10208000FFF7C4FF05E0204600F08CF8204600F082
:102090008AF80020207720680069C0F3C000D8B11A
:1020A0002068C068C0F3C000B0B16FF008002168BC
:1020B0000861042020772068C06900F0030018B18F
:1020C0002046FFF7A3FF05E0204600F06BF820460E
:1020D00000F069F80020207720680069C0F3001044
:1020E000D8B12068C068C0F30010B0B16FF0100024
:1020F00021680861082020772068C06900F44070DA
:1021000018B12046FFF782FF05E0204600F04AF8AC
:10211000204600F048F8002020772068006900F091
:10212000010058B12068C06800F0010030B16FF0C4
:10213000010021680861204600F036F82068006937
:10214000C0F3C01058B12068C068C0F3C01030B1EF
:102150006FF08000216808612046FFF7C9FD206804
:102160000069C0F3801058B12068C068C0F38010C7
:1021700030B16FF0400021680861204600F040F85F
:1021800020680069C0F3401058B12068C068C0F3EF
:10219000401030B16FF02000216808612046FFF741
:1021A000A8FD10BD704770470F4988421AD10F49EA
:1021B0000968491C0D4A11600D490978491C0C4AEF
:1021C00011700A49096832290CDB0021074A1160A5
:1021D0009FED080A084981ED000A9FED060A0749AC
:1021E00081ED000A704700009005002004000020E7
:1021F0004900002000000000680000206C00002062
:1022000070477047704700002DE9F84F044620687A
:1022100005682068C668206847694FF00009CA460B
:1022200005F00F09B9F1000F0AD105F0200038B10F
:1022300006F0200020B1204600F0D3FDBDE8F88F65
:10224000B9F1000F7CD007F0010018B906F49070C6
:10225000002875D005F0010030B106F4807018B187
:10226000206C40F00100206405F0040030B107F05C
:10227000010018B1206C40F00200206405F002005B
:1022800030B107F0010018B1206C40F00400206468
:1022900005F0080048B106F0200010B907F0010071
:1022A00018B1206C40F008002064206C002846D053
:1022B00005F0200028B106F0200010B1204600F003
:1022C00090FD20684069C0F3801A206C00F008007F
:1022D00010B9BAF1000F2DD0204600F03CFD206867
:1022E000406900F04000402820D100BF00BF2168B5
:1022F000143151E8001F21F040002168143141E8F9
:102300000002002AF3D100BFA06B50B17548A16B49
:102310000865A06BFEF7FFFE88B1A06B016D8847D2
:102320000DE02046FFF76EFF09E009E02046FFF7C9
:1023300069FF04E02046FFF765FF002020647DE789
:10234000206B012876D105F01000002872D006F02D
:1023500010000028FAD000BF00200090206800681C
:10236000009020684068009000BF00BF206840696E
:1023700000F0400040285ED1A06B006840681FFA62
:1023800080F8B8F1000F54D0A08D404551DDA4F87D
:102390002E80A06BC069B0F5807F43D000BF00BF26
:1023A00021680C3151E8001F21F4807021680C3144
:1023B00041E80002002AF3D100BF00BF00BF21683E
:1023C000143151E8001F21F001002168143141E867
:1023D0000002002AF3D100BF00BF00BF2168143102
:1023E00051E8001F21F040002168143141E800024B
:1023F000002AF3D100BF202084F83E000020206393
:1024000000BF00BF21680C3151E8001F21F010000F
:1024100021680C3141E80002002AF3D100BFA06B13
:10242000FEF723FEA08DE28D801A81B22046FFF7D1
:10243000E8FE03E740E0A08DE18D401A1FFA80F826
:10244000E08DC0B3B8F1000F35D000BF00BF2168E8
:102450000C3151E8001F21F4907021680C3141E8E3
:102460000002002AF3D100BF00BF00BF2168143171
:1024700051E8001F21F001002168143141E80002F9
:10248000002AF3D100BF202084F83E000020206302
:1024900000BF00BF21680C3151E8001F21F010007F
:1024A00021680C3141E80002002AF3D100BF414607
:1024B0002046FFF7A6FEC1E605F0800030B106F029
:1024C000800018B1204600F044FEB7E605F0400059
:1024D00030B106F0400018B1204600F072FCADE6C5
:1024E00000BFABE6432D000810B504460CB901202F
:1024F00010BDA06900B100E000BF94F83D0028B90C
:10250000002084F83C00204600F028F8242084F8BD
:102510003D002068C06820F400502168C860204653
:1025200000F0DCFC2068006920F49040216808611C
:102530002068406920F02A00216848612068C0684E
:1025400040F400502168C86000202064202084F8F6
:102550003D0084F83E000020CAE7000010B586B0B8
:102560000446142101A8FDF765FE6D4920688842E4
:1025700056D100BF002000906A48006840F010006B
:10258000684908600846006800F01000009000BF2D
:1025900000BF00BF0020009062481438006840F07F
:1025A00002006049143908600846006800F0020023
:1025B000009000BF00BF00BF0020009008460068E8
:1025C00040F0010008600846006800F0010000903B
:1025D00000BF00BF802001900220029000200390E5
:1025E000032004900720059001A94F48FEF7EAFD5B
:1025F0004FF400700190022002900020039003200D
:1026000004900720059001A94848FEF7DBFD002251
:1026100011462520FEF772FF2520FEF75FFF7CE0C4
:102620004349206888423BD100BF002000903D48CC
:10263000001F006840F480203A49091F08600846DE
:10264000006800F48020009000BF00BF00BF0020A1
:10265000009034481438006840F0040031491439BF
:1026600008600846006800F00400009000BF00BF4A
:102670004FF440600190022002900020039003205C
:1026800004900720059001A92A48FEF79BFD00222F
:1026900011462720FEF732FF2720FEF71FFF3CE000
:1026A00025492068884238D100BF002000901D488D
:1026B000006840F020001B4908600846006800F0F0
:1026C0002000009000BF00BF00BF00200090154810
:1026D0001438006840F04000124914390860084678
:1026E000006800F04000009000BF00BF4FF484403D
:1026F0000190022002900020039003200490082003
:10270000059001A90D48FEF75DFD0022012147203B
:10271000FEF7F4FE4720FEF7E1FE06B010BD000014
:102720000010014044380240000402400000024012
:102730000048004000080240001401400018024018
:1027400070B504460D46164694F83E00202816D172
:1027500005B10EB9012070BD00BF94F83C000128FE
:1027600001D10220F7E7012084F83C0000BF0020DF
:10277000206332462946204600F0C6FCEBE70220E3
:10278000E9E7000010B504460F492068884219D1D6
:102790000E480078AA2810D10C48407A55280CD150
:1027A0000B480A49D1F8011001600A480749D1F8DD
:1027B000051001600020084908600A220349074803
:1027C000FFF7BEFF10BD000000140140F60000201E
:1027D000680000206C00002004000020600600203B
:1027E00010B5034693F83D00202823D101B10AB962
:1027F000012010BD00BF93F83C00012801D1022048
:10280000F7E7012083F83C0000BF19629A84DA845C
:1028100000201864212083F83D0000BF002083F8C9
:102820003C0000BF1868C06840F080001C68E06091
:102830000020DEE70220DCE710B5044603492068EB
:10284000884202D102A000F0CFFC10BD0010014070
:102850007561727420747820656E640D0A00000042
:1028600000BFFEE710B50E480E490860062048601C
:1028700000210C488160C1604FF4A02101614FF438
:10288000C00141610021017641768176C1760177F0
:102890004177FEF75AFA08B1FDF71EFF10BD0000A0
:1028A000006400406805002000B587B0142102A82C
:1028B000FDF7C0FC00BF002001904548006840F0D3
:1028C0004000434908600846006800F0400001905D
:1028D00000BF00BF00BF002001900846006840F024
:1028E000010008600846006800F00100019000BF88
:1028F00000BF00BF002001900846006840F00200C1
:1029000008600846006800F00200019000BF00BFA8
:1029100000BF002001900846006840F008000860F1
:102920000846006800F00800019000BF00BF00BF2B
:10293000002001900846006840F004000860084646
:10294000006800F00400019000BF00BF00BF00203D
:1029500001900846006840F0800008600846006862
:1029600000F08000019000BF00BF00224FF4E05152
:102970001848FEF733FD402002904FF48810039072
:102980000020049002A91448FEF71CFC4FF4E0500C
:1029900002900120039000200490059002A90D48A8
:1029A000FEF710FC012002904FF404100390012068
:1029B000049002A90948FEF705FC002211460620F2
:1029C000FEF79CFD0620FEF789FD07B000BD000064
:1029D00030380240001C0240000C0240000002405F
:1029E00000B587B0002003900490059006900190F8
:1029F000029015481549086044F29F104860002174
:102A0000124881606321C160002101614161802120
:102A10008161FFF7C9F908B1FDF75EFE4FF4805000
:102A2000039003A90948FFF76BFA08B1FDF754FEBC
:102A300000200190029001A90448FFF75BF908B15A
:102A4000FDF74AFE07B000BD0000014090050020E0
:102A500010B50B480B4908604FF4E1304860002185
:102A600008488160C16001610C21416100218161E0
:102A7000C161FFF739FD08B1FDF72EFE10BD000062
:102A800000100140D805002010B50B480B49086024
:102A90000B484860002109488160C1604FF48061A3
:102AA00001610C21416100218161C161FFF71CFDC1
:102AB00008B1FDF711FE10BD004800401C060020C3
:102AC000A086010010B50B480B4908604FF4E130B7
:102AD0004860002108488160C16001610C214161AA
:102AE00000218161C161FFF7FFFC08B1FDF7F4FD32
:102AF00010BD0000001401406006002000BFFEE78A
:102B000000BFFEE77047704710B5FEF773FC10BDBD
:102B100000B593B0302107A8FDF78CFB142102A863
:102B2000FDF788FB00BF002001902448006840F0BA
:102B30008050224908600846006800F080500190EB
:102B400000BF00BF00BF002001901D48006840F496
:102B500080401B4908600846006800F480400190EE
:102B600000BF00BF012007900004089002200D90D4
:102B700041050E9106210F91A8211091022111917A
:102B80000421129107A8FEF74BFE08B1FDF7A4FD42
:102B90000F20029002200390002004904FF4A050D8
:102BA00005904FF480500690052102A8FEF7F8FC2E
:102BB00008B1FDF791FD13B000BD000040380240A0
:102BC000007000400348006840F47000014908604C
:102BD0007047000088ED00E010B50448FFF717FAD1
:102BE00003480068401C0249086010BD90050020A1
:102BF0000000002010B50268294B98420ED0B0F1B9
:102C0000804F0BD0274B984208D0274B984205D0D5
:102C1000264B984202D0264B984203D122F07002F4
:102C20004B681A431E4B984220D0B0F1804F1DD004
:102C30001C4B98421AD01C4B984217D01B4B984201
:102C400014D01B4B984211D01A4B98420ED01A4BFD
:102C500098420BD0194B984208D0194B984205D096
:102C6000184B984202D0184B984203D122F440727C
:102C7000CB681A4322F080034C6943EA04020260E5
:102C80008B68C3620B688362054B984202D0084B85
:102C9000984201D10B6903630123436110BD000019
:102CA000000001400004004000080040000C00400B
:102CB0000004014000400140004401400048014040
:102CC00000180040001C00400020004030B50C46B9
:102CD000816821F47F4142EA03252543294381602D
:102CE00030BD0A46816821F0700142F007031943A4
:102CF0008160704730B50B461446026A056A25F0BC
:102D000001050562816921F0F00141EA041122F018
:102D10000A021A438161026230BD30B50B46144687
:102D2000056A25F0100505628169026A21F4704187
:102D300041EA043122F0A00242EA031281610262F8
:102D400030BD70B50546AC6B0020E085E0842046C0
:102D5000FFF758FA70BD00BF00BF02680C3252E89E
:102D6000002F22F4907102680C3242E80013002B0D
:102D7000F3D100BF00BF00BF0268143252E8002F39
:102D800022F001010268143242E80013002BF3D153
:102D900000BF016B01290ED100BF00BF02680C32D9
:102DA00052E8002F22F0100102680C3242E80013B2
:102DB000002BF3D100BF202180F83E1000210163D9
:102DC000704710B504462068C06820F040002168B4
:102DD000C860202084F83D002046FFF72DFD00202C
:102DE00010BDF8B5044694F83E00222873D1A068BF
:102DF000B0F5805F0CD1206950B90025A66A206823
:102E00004068C0F308003080A06A801CA06215E012
:102E1000A56A0026A068B0F5805F03D0A06828B935
:102E2000206918B920684068287004E0206840686C
:102E300000F07F002870A06A401CA062E08D401E58
:102E400080B2E085002844D12068C06820F02000CE
:102E50002168C8602068C06820F480702168C8605C
:102E60002068406920F0010021684861202084F832
:102E70003E00206B012826D10020206300BF00BF48
:102E800021680C3151E8001F21F0100021680C313D
:102E900041E80002002AF3D100BF2068006800F07A
:102EA000100010280AD100BF0020009020680068A0
:102EB000009020684068009000BF00BFA18D2046B0
:102EC000FFF79FF902E02046FFF75CFC0020F8BD09
:102ED00001E00020FBE70220F9E700002DE9F84FB0
:102EE00004462068006920F44050E16808432168E6
:102EF00008612169A068084361690843E1690843E2
:102F000000902068C06849F20C618843009908432A
:102F10002168C8602068406920F44070A1690843B6
:102F20002168486176492068884203D07549206845
:102F3000884203D1FEF70CFC814602E0FEF7F8FB65
:102F40008146E069B0F5004F6CD102206168A0FBBA
:102F5000015003461920A9FB007001462A46384655
:102F6000FDF730F96421B0FBF1F04FEA001A0220BE
:102F70006168A0FB01510B461920A9FB00712A468C
:102F80003846FDF71FF9834602206168A0FB015017
:102F900003461920A9FB00712A463846FDF712F9AD
:102FA0006421B0FBF1F000EBC00101EB0010ABEBD2
:102FB0008000322101EBC0006421B0FBF1F000F091
:102FC000F8000AEB400A02206168A0FB01500346AA
:102FD0001920A9FB007001462A463846FDF7F2F891
:102FE000834602206168A0FB015003461920A9FB1B
:102FF00000712A463846FDF7E5F86421B0FBF1F090
:1030000000EBC00101EB0010ABEB8000322101EBC3
:10301000C0006421B0FBF1F000F0070050442168CB
:1030200088606AE004206168A0FB01500346192013
:10303000A9FB007001462A463846FDF7C3F88246D0
:1030400004206168A0FB015003461920A9FB007011
:1030500001462A463846FDF7B5F86421B0FBF1F089
:1030600000EBC00101EB0010AAEB8000322101EB64
:1030700000106421B0FBF1F000F0F00A0420616858
:10308000A0FB017003461920A9FB00513A462846CF
:10309000FDF798F86421B0FBF1F00AEB001A042068
:1030A0006168A0FB01510B461920A9FB00712A465B
:1030B0003846FDF787F8834604206168A0FB01507D
:1030C00003461920A9FB007001462A463846FDF741
:1030D00079F86421B0FBF1F000EBC00101EB0010C6
:1030E000ABEB8000322101EB00106421B0FBF1F06A
:1030F00000F00F00504421688860BDE8F88F0000A0
:10310000001001400014014010B5034699629A85F1
:10311000DA8500201864222083F83E0000BF0020DA
:1031200083F83C0000BF186928B11868C06840F4F3
:1031300080701C68E0601868406940F001001C68FD
:1031400060611868C06840F020001C68E0600020E2
:1031500010BD014691F83D00212828D18868B0F5BE
:10316000805F0BD1086948B90A6A1088C0F308006B
:103170000B685860086A801C086205E00B6A581CDE
:10318000086218780B685860C88C401E80B2C884EA
:1031900058B90868C06820F080000B68D8600868DB
:1031A000C06840F040000B68D860002070470220E3
:1031B000FCE7000010B50248FFF726F810BD00003C
:1031C000D805002010B50248FFF71EF810BD00001A
:1031D0001C06002010B50248FFF716F810BD0000CD
:1031E0006006002000BFFEE70FB4054B10B503A931
:1031F000044A029800F034F810BC5DF814FB00009B
:1032000035370008E800002002480068C0F30220BB
:10321000704700000CED00E010B5002804DB0A0741
:10322000130E054A135406E00A07140E034A00F071
:103230000F031B1FD45410BD00E400E018ED00E0A4
:1032400002E008C8121F08C1002AFAD1704770476F
:10325000002001E001C1121F002AFBD170470000CD
:103260002DE9FF4F8DB09B460F460446002606E031
:1032700025280BD05A460F999047641C761C20785D
:103280000028F5D111B03046BDE8F08F0025A846E2
:103290000122984900E0054314F8013F203B02FA5F
:1032A00003F00842F7D120782E2817D114F8010F27
:1032B00045F004052A280ED06FF02F022078A0F1E7
:1032C000300109290AD808EB880102EB410100EB23
:1032D0000108641CF2E757F8048B641C20786C2802
:1032E0000DD004DC4C2812D06A2811D104E07428D7
:1032F0000DD07A280CD10AE045F4001507E061787A
:1033000045F48015814202D1641C05F58015641CCA
:103310002078692844D008DC0028B3D0582867D02A
:1033200063280FD0642808D13AE0702865D073284C
:1033300012D075285AD078285AD05A460F999047FB
:10334000761CD5E017F8040B8DF8000000208DF8EE
:103350000100E946012003E057F8049B4FF0FF30DD
:1033600069074FF0000501D40AE06D1C45450DDAF0
:103370008542FADB19F805100029F6D106E06D1C2C
:103380008542FCDB19F805100029F8D12E4404E031
:1033900019F8010B5A460F9990476D1EF8D2A7E015
:1033A0000A200021CDE90801C5F3025002280CD003
:1033B00001CFC117021E71F100020CDA0023D0EB1D
:1033C000030063EB01012D2208E0FF1D27F0070732
:1033D000F7E80201EEE72A0504D52B228DF8282014
:1033E00001223CE0EA073AD02022F7E70A2000E079
:1033F00010200021CDE9080107E01020002145F050
:103400000405CDE908014FF00808C5F30250022871
:1034100010D001CF00214FF0000A2A0720D52278D2
:10342000702A0DD0DDE908C38CF0100C5CEA030CA7
:103430000CD015E0FF1D27F00707F7E80201EAE7C7
:1034400040228DF828204FF0010A0CE050EA0103D9
:1034500006D030238DF828308DF82920022292469C
:103460002278582A04D024A20DF120090B9209E0F9
:1034700026A2F9E7DDE90823FCF7A4FE0B9B9B5C81
:1034800009F8013D50EA0102F4D1ADEB090020300A
:103490000890680701D44FF001080899884503DDBA
:1034A0000898A8EB000000E000208046002506E018
:1034B0000AA85A46405D0F9990476D1C761C5545E9
:1034C000F6DB04E030205A460F999047761CB8F19D
:1034D0000001A8F10108F5DC05E019F8010B5A46D6
:1034E0000F999047761C0899481E08900029F4DC33
:1034F000641CC4E6092801003031323334353637D4
:10350000383961626364656600000000303132332F
:1035100034353637383941424344454600000000CF
:1035200010B51248007848B9012211031048FDF780
:1035300055FF40F2016000F0DDFC16E00B4800781A
:1035400098B10C48007848B9012291020848FDF76B
:1035500045FF40F2016000F039FC06E00122D10293
:103560000348FDF73BFF00F021F810BDA00000204C
:10357000001C0240A10000200A480069401C10B94C
:1035800001200949087007480069012802D102207A
:10359000054908700348006910B96F200249087096
:1035A00070470000A40600202200002010B52DED79
:1035B000088B54480068012806D002280FD005283F
:1035C0007ED006287DD192E040F2016000F0FEFB43
:1035D00002204C4908600520FDF7B2FD8DE04A4805
:1035E00090ED000A4948D0ED000A20EE200AF0EEE6
:1035F000000A80EE201A464890ED000A30EE410A9B
:10360000444880ED000A404890ED000A3F48D0ED64
:10361000000A20EE200AB0EE001AC0EE010A3C4873
:1036200090ED000A30EE800A3B4880ED000A3B48EE
:103630000068FCF70AFF41EC1B0B9FED390B53ECC4
:10364000102BFCF702FE41EC190B324890ED000AFA
:10365000DFED350A20EE200A10EE101A0846FCF7BE
:10366000F4FE41EC1A0B53EC192BFCF760FE41EC15
:10367000180BFCF7CBFE00B240422C4908602748EB
:103680000068FCF7E2FE41EC1B0B9FED250B53ECB1
:10369000102BFCF7DAFD41EC190B1F4890ED000AE6
:1036A000DFED210A20EE200A10EE101A0846FCF782
:1036B000CCFE41EC1A0B53EC192BFCF738FE01E061
:1036C00010E019E041EC180BFCF7A0FE00B218491D
:1036D0000860084602681548016840F2016000F081
:1036E000DFFB0AE040F2016000F052FB05E040F22F
:1036F000016000F033FB00E000BF00BFBDEC088BB1
:1037000010BD0000B80000206C0000207C000020EC
:103710006800002070000020740000207800002065
:10372000A7E8482EFF2119400000704280000020C9
:103730008400002010B50A4601460B4B1B6803F0BD
:1037400001037BB1084B803B1B6803F001034BB1C5
:1037500000E000BF4FF060431B68002BF9D04FF032
:103760006044217000BF10BD800E00E02DE9F043E1
:1037700085B007460C4615461E46DDE90C890494C3
:1037800003950296CDF80480CDF800900120A7495A
:103790000870A749087040E1A54800780D281ED29E
:1037A000DFE800F01D071E3D5C7B1D9AB8D1EAFCE6
:1037B000FB002B209F4908704020487060208870D3
:1037C0000020C870087148718871C8713846FCF7CC
:1037D00059FF0A20FDF7B4FC0220954908701BE14F
:1037E000232094490870832048706020887000204E
:1037F000C8709DF8100008719DF8110048719DF87F
:10380000120088719DF81300C8713846FCF73AFF22
:103810000A20FDF795FC032085490870FCE0232071
:103820008449087084204870602088700020C87027
:103830009DF80C0008719DF80D0048719DF80E0070
:1038400088719DF80F00C8713846FCF71BFF0A20ED
:10385000FDF776FC042076490870DDE023207549E9
:10386000087081204870602088700020C8709DF822
:10387000080008719DF8090048719DF80A008871D8
:103880009DF80B00C8713846FCF7FCFE0A20FDF7D6
:1038900057FC052066490870BEE023206549087082
:1038A0007A204870602088700020C8709DF804005D
:1038B00008719DF8050048719DF8060088719DF813
:1038C0000700C8713846FCF7DDFE0A20FDF738FC1A
:1038D0000720574908709FE02F2056490870602044
:1038E000487088700020C8709DF8000008719DF82D
:1038F000010048719DF8020088719DF80300C871AD
:103900003846FCF7BFFE0A20FDF71AFC082048499C
:10391000087081E02B2047490870402048706020E3
:1039200088700020C87006200871002048718871D6
:10393000C8713846FCF7A6FE0A20FDF701FC0920F5
:103940003B49087068E02B203A49087040204870D5
:10395000602088700020C87007200871002048711E
:103960008871C8713846FCF78DFE0A20FDF7E8FB28
:103970000A202F4908704FE02B202E490870402064
:103980004870602088700020C8700F2008710020E7
:1039900048718871C871384601E022E008E0FCF700
:1039A00071FE0A20FDF7CCFB0B202149087033E0A3
:1039B0002B2020490870402048706020887000202B
:1039C000C8704F200871002048718871C87138464E
:1039D000FCF758FE0A20FDF7B3FB0C2014490870D1
:1039E0001AE02B201349087040204870602088702E
:1039F0000020C8705F200871002048718871C8716C
:103A00003846FCF73FFE0A20FDF79AFB00200849E4
:103A100008700649087000BF00BF044800780028FD
:103A20007FF4BAAE05B0BDE8F0830000E2000020EC
:103A3000240000208900002010B52DED0C8B88B0EB
:103A4000FDF7E4FCFFF764F8FEF72EFFFEF70AFF30
:103A5000FEF7FEFFFEF7C4FFFFF734F8FFF714F898
:103A6000FCF7EAFD0221A148FCF737FE9F48FDF76D
:103A7000C6FA9FA0FFF7B8FB0122A049A048FEF7B5
:103A80005FFE0A229F49A048FEF75AFE9F48FEF7B4
:103A9000E3F99648FDF7B3FA28B90122D1029C4810
:103AA000FDF79CFC04E0012211039948FDF796FC08
:103AB0006420FDF745FB40F2016000F087F96420C7
:103AC000FDF73EFB93A00068009000200290059057
:103AD0000220069000208DF81C0001AB6A4602A966
:103AE0008248FCF70FFE20B1012008B0BDEC0C8B22
:103AF00010BD4FF47A70FDF723FBF6E086480068AE
:103B0000401C854908608548007805287EDB002038
:103B10008249087082480068FCF797FC41EC1B0B57
:103B2000804890ED000AF0EE000A20EE200A10EE28
:103B3000101A0846FCF789FC41EC1D0B9FED7A0B2F
:103B400053EC102BFCF781FB41EC1C0B53EC1B2BB3
:103B5000FCF77BFB41EC1A0B9FED750B53EC102B24
:103B6000FCF7E5FB41EC190BFCF782FC08EE100AB0
:103B70006B480068FCF769FC41EC1B0B6E4890ED4C
:103B8000000AF0EE000A20EE200A10EE101A084695
:103B9000FCF75BFC41EC1D0B9FED630B53EC102B12
:103BA000FCF753FB41EC1C0B53EC1B2BFCF74DFBC0
:103BB00041EC1A0B9FED5E0B53EC102BFCF7B7FB9F
:103BC00041EC190BFCF754FC08EE900A38EE280A79
:103BD000F0EE000A80EE201A584880ED001A38EE08
:103BE000C80A5748D0ED000A80EE201A554880EDEB
:103BF000001A0024AA222046641C53490A5408468D
:103C000020444E4909680160241D00E014E04E483C
:103C100020444C4909680160241D55222046641C3B
:103C200049490A54384890F83D00202803D1A2B2EF
:103C30003548FEF7D5FD00BFFFF772FC00224FF4B8
:103C400080513348FDF7CAFB00224FF40061304831
:103C5000FDF7C4FB00224FF480612D48FDF7BEFB49
:103C6000FFF78AFC39480088012807D1032038492A
:103C70000870012140F2036000F076FA33480088B2
:103C8000022806D132490870022140F2036000F098
:103C90006BFA2E480088072801D100F099FB2B48C9
:103CA000008809280AD100F00FFA00F0CDF900F0E1
:103CB000EBF9002026490870244908802348008831
:103CC0006F2812D12B2023490870402048706020B3
:103CD00088700020C8700220087100204871887127
:103CE000C8711D480068FCF7CDFC07E76805002097
:103CF000776F726B696E6720210D0A00EC0000205F
:103D00001C060020F6000020600600209005002020
:103D1000001C024001010000340000204900002086
:103D200078000020C80000204AD8124DFB2109402D
:103D30000000000000004E40CC0000204C0000209D
:103D40007C00002050000020000100202200002004
:103D5000A3000020890000201400002010B50446B4
:103D60002B200A490870402048706020887000208D
:103D7000C87080200871002048718871C871204681
:103D8000FCF780FC0520FDF7DBF910BD8900002061
:103D900010B504462B200B49087040204870602065
:103DA00088700020C870087148718871C8712046F9
:103DB000FCF768FC0120044908700520FDF7C0F9F4
:103DC00010BD000089000020A200002070B505464B
:103DD000002400260126012458E0012C06D0022CE4
:103DE0001BD0032C30D0042C4DD144E02B2029498A
:103DF000087040204870602088700020C87006203D
:103E00000871002048718871C8712846FCF73AFC97
:103E10000520FDF795F9641C37E02B201D4908703B
:103E200040204870602088700020C870072008710A
:103E3000002048718871C8712846FCF723FC0520D2
:103E4000FDF77EF9641C20E02B2012490870402009
:103E50004870602088700020C8700F200871002012
:103E600048718871C8712846FCF70CFC0520FDF7E5
:103E700067F9641C09E0002601200749087000204A
:103E80000649087001E0002600BF00BF002EA4D143
:103E900070BD000089000020A1000020A2000020C9
:103EA00070B506460C4615460F4804600F4805607D
:103EB00023200F490870FF2048706020887003207D
:103EC000C870094800780871074880784871074829
:103ED0000078887105488078C8713046FCF7D2FBBD
:103EE0000520FDF72DF970BDA8000020AC000020D2
:103EF0008900002070B50546002400260126012413
:103F000099E0082C77D2DFE804F093041B31485F76
:103F1000778E2B204A4908700F2048702020887027
:103F20000020C87001200871002048718871C87194
:103F30002846FCF7A7FB0520FDF702F9641C79E091
:103F40002F203F4908706020487088700020C8709A
:103F500003200871002048718871C8712846FCF759
:103F600091FB0520FDF7ECF8641C63E02320344945
:103F7000087083204870602088700120C870642019
:103F80000871002048718871C8712846FCF77AFBD7
:103F90000520FDF7D5F8641C4CE023202849087063
:103FA00083204870602088700220C87064200871E7
:103FB000002048718871C8712846FCF763FB052012
:103FC000FDF7BEF8641C35E023201D4908708420ED
:103FD0004870602088700120C8706420087100203B
:103FE00048718871C8712846FCF74CFB0520FDF725
:103FF000A7F8641C1EE01BE02320114908708420F0
:104000004870602088700220C87064200871002009
:1040100048718871C8712846FCF734FB0520FDF70C
:104020008FF8641C06E0002601200649087001E0B4
:10403000002600BF00BF002E7FF463AF70BD0000FC
:1040400089000020A000002010B540200B49087016
:1040500003204870202088700020C87008714871C3
:104060008871C87140F20360FCF70CFB0A20FDF771
:1040700067F8034800790349087010BD89000020E3
:10408000910000201A00002010B540200B49087054
:1040900041204870602088700020C8700871487105
:1040A0008871C87140F20360FCF7ECFA0A20FDF752
:1040B00047F8034840790349087010BD8900002083
:1040C000910000201D00002010B52B20174908701A
:1040D00040204870602088700020C870022008715D
:1040E000002048718871C87140F20160FCF7CAFA7B
:1040F0000A20FDF725F80EA0FFF776F80B4940F2ED
:104100000260FCF7BFFA0A20FDF71AF80CA0FFF7CF
:104110006BF8064940F20360FCF7B4FA0A20FDF799
:104120000FF80CA0FFF760F810BD00008900002018
:10413000646F6F725F736372616D210D0A0000001E
:10414000747269616E676C655F736372616D210D76
:104150000A0000006269675F62696E5F7363726183
:104160006D210D0A000000007CB505460C460120BB
:104170007D490870F2E0FFF767FFFFF785FF7B4896
:104180000078172876D006DC01280BD002283DD015
:1041900003283AD152E0182877D0192869D01A2874
:1041A000F7D1BAE07248007800F04000402825D0EE
:1041B000012C11D16F48007801280AD16EA0FFF7B9
:1041C00013F8002069490870674908707949088028
:1041D00002E0022065490870022C16D1654800787B
:1041E000022807D10020614908705F4908707149B1
:1041F00008800AE003205D49087006E000205B4962
:104200000870594908706B490880A6E05948007841
:10421000022803D11A20554908709EE00120664902
:10422000C82340F2DC52CDE900104FF4FA71284661
:10423000FFF79CFA17204D4908708EE04D48007832
:10424000012803D11A204949087086E001205A4903
:104250004942C82340F2DC52CDE900104FF4FA7114
:104260002846FFF783FA17204049087075E001E0FF
:104270000BE02EE0012C02D118203C490870022CE2
:1042800002D119203949087067E03948007800F0F8
:104290004000402815D1FFF76FF9464800886F2885
:1042A0000BD034480078012803D11A202F49087018
:1042B0000EE018202D4908700AE01A202B490870DA
:1042C00006E000202949087027490870394908800C
:1042D00043E02748007800F04000402815D1FFF760
:1042E0004BF9344800886F280BD022480078022808
:1042F00003D11A201D4908700EE019201B490870CF
:104300000AE01A201949087006E0002017490870D1
:1043100015490870274908801FE02B20274908709D
:1043200040204870602088700020C870022008710A
:10433000002048718871C8712846FCF7A3F90A204B
:10434000FCF7FEFE1EA0FEF74FFF00200749087095
:10435000054908701749088000BF00BF024800786F
:1043600000287FF408AF7CBDE4000020A3000020FB
:104370001D0000201A0000202A2A2A2A2A2A2A2A76
:104380002A2A2A2A2A2A2A2A2A2A2A2A636F666697
:1043900065655F75705F6E6F5F6F7665722A2A2A3A
:1043A0002A2A2A2A2A2A2A2A2A2A2A2A2A2A2A2A6D
:1043B0000D0A00002200002080A9030089000020CF
:1043C000747269616E676C65206F7665720D0A00A4
:1043D00010B52B2014490870402048706020887068
:1043E0000020C87080200871002048718871C87151
:1043F00040F20160FCF746F90A20FCF7A1FE0A49E9
:1044000040F20260FCF73EF90A20FCF799FE0649EB
:1044100040F20360FCF736F90A20FCF791FE002019
:104420000249087010BD000089000020A300002090
:104430000000000000000000010203040607080954
:10444000000000000102030468440008000000208E
:10445000EC0000004032000854450008EC00002049
:104460001C0A00005032000800000000000000009C
:104470000000000001060000020600000306000024
:10448000000000000000000000000000000000002C
:10449000000000000000000000000000000000001C
:1044A000010000000000000000000000000000000B
:1044B00000000000000000000000000000000000FC
:1044C00000000000000000000000000000000000EC
:1044D00000000000000000000000000000000000DC
:1044E000DD24863D14AEC73E000000000000000041
:1044F000010011223344556677001122334455667A
:104500007700000001000000000000000000000033
:10451000000000000000000000000000000000009B
:10452000010000000000000000000000000000008A
:10453000000000000000000000000000100000006B
:10454000010000000024F400000000000000000052
:044550000000000067
:040000050800018965
:00000001FF
