:020000040800F2
:10000000800A0020A10100082F240008ED2100082B
:100010002D240008FD060008A528000800000000A7
:100020000000000000000000000000003324000871
:100030007D07000800000000312400083524000876
:10004000BB010008BB010008BB010008BB010008A0
:10005000BB010008BB0100087F070008BB010008C6
:10006000BB010008BB010008BB010008BB01000880
:10007000BB010008BB010008BB010008BB01000870
:10008000BB010008BB010008BB010008BB01000860
:100090002507000831070008BB010008BB01000864
:1000A000BB010008CD240008BB010008BB0100080B
:1000B000BB010008BB010008BB010008BB01000830
:1000C000BB010008BB010008BB010008BB01000820
:1000D000BB01000881280008BB0100088D2800082A
:1000E000BB010008BB010008BB010008BB01000800
:1000F000BB010008BB010008BB010008BB010008F0
:10010000BB010008BB010008BB010008BB010008DF
:10011000BB010008BB010008BB010008BB010008CF
:10012000BB010008BB010008BB010008BB010008BF
:10013000BB010008BB010008BB010008BB010008AF
:10014000BB010008BB010008BB010008BB0100089F
:10015000BB010008BB010008BB010008992800088A
:10016000BB010008BB010008BB010008BB0100087F
:10017000BB010008BB010008BB0100080000000033
:10018000BB010008BB010008DFF810D000F0A4FAA2
:1001900000480047A12F0008AFF30080800A00202C
:1001A0000648804706480047FEE7FEE7FEE7FEE711
:1001B000FEE7FEE7FEE7FEE7FEE7FEE7BD240008F8
:1001C000890100082DE9F05F0546002092469B4614
:1001D00088460646814640241BE02846414647465D
:1001E000224600F0F9F953465A46C01A914110D3FD
:1001F00011461846224600F0E0F92D1A67EB010877
:100200004F4622460120002100F0D7F917EB0009E4
:100210004E41201EA4F10104DFDC484631462A4647
:100220004346BDE8F09FD2B201E000F8012B491E21
:10023000FBD270470022F6E710B513460A46044683
:100240001946FFF7F0FF204610BD2DE9FE4F80460E
:1002500081EA0300C00F0C46009021F0004123F01A
:100260000045B8EB0200A94105D240462146904620
:100270001C460B46024623F00040104347D0270D92
:10028000C7F30A00C3F30A510290401A01904028B4
:100290006BDAC3F3130040F4801B0098924620B140
:1002A0000023D2EB030A63EB0B0B01985946C0F114
:1002B0004002504600F081F906460D465046594628
:1002C000019A00F099F910EB08006141002487EAD7
:1002D000115284EAE7731A4340D0009A62B3019A3C
:1002E000012A4FEA075215DC001B61EB02014FF0B7
:1002F000004202EA0752CDE90042001C41F580119C
:1003000032462B4600F099F903B0BDE8F08F404625
:100310002146F9E7001B61EB0201001C41F5801347
:1003200000185B412018A2F5001747EB030140EAD3
:10033000D570B6196D4111E06D084FEA360645EAF1
:10034000C0754FEA0752001B61EB0201001C41F52A
:10035000801149084FEA30000019514132462B46BE
:1003600003B0BDE8F04F00F059B9009801224000F9
:100370000023D0EB020263EBE073009821464FEAC2
:10038000E074B8EB000061EB0401E9E783F000439F
:100390005BE781F0004158E72DE9FE4F81EA030455
:1003A00004F0004421F0004100944FF0000B23F0D2
:1003B000004350EA01045ED052EA03045BD0C3F369
:1003C0000A54C1F30A552C44A4F2F3340194A0FB5F
:1003D0000254C1F3130141F48011C3F3130343F436
:1003E000801301FB024400FB034E840A970A44EA8F
:1003F000815447EA8357A4FB076802958D0A05FBE1
:1004000007854FEA932C04FB0C542705029D4FEA05
:10041000065847EA1637B5EB08056EEB070C870E52
:10042000920E47EA811742EA8312A7FB0201B6EB5C
:100430000B0164EB00042B0D43EA0C335E1844EB14
:100440001C50DA465146E7FB0201C5F313044FEA9C
:100450000B3343EA14534FEA0432019C43EA060388
:10046000A4F10C040294009CCDE900B400F0E5F87E
:1004700003B0BDE8F08F00200146F9E72DE9F04D0B
:1004800081EA030404F0004B21F0004514464FF0CC
:10049000000A23F0004150EA050220D054EA01028C
:1004A0001DD0C5F30A570246C5F31303C1F3130069
:1004B000C1F30A5640F4801543F48013A7EB0608F5
:1004C000101BD64608F2FD3873EB050002D308F185
:1004D000010801E092185B41B8F1000F03DA002037
:1004E0000146BDE8F08D00204FF480110646844699
:1004F0000EE0171B73EB050705D3121B63EB050317
:1005000006434CEA010C49084FEA300092185B415F
:1005100050EA0107EDD152EA030012D082EA04004A
:1005200083EA0501084305D0101BAB4106D2012226
:10053000002306E000224FF0004302E06FF00102CA
:1005400053101AEB06004CEB085110EB0A0041EB7C
:100550000B01BDE8F04D00F061B80EB5C10F80EAA7
:10056000E0700844CA07002140F233438DE80E00D2
:100570000A460B4600F061F803B000BD70B5C1F348
:100580000A5201F000450024C1F3130140F2FF3389
:1005900041F480119A4201DA002070BD40F23343E9
:1005A0009A42A2F2334203DC524200F015F800E016
:1005B00090402C43F1D0404270BD202A04DB203A09
:1005C00000FA02F1002070479140C2F1200320FAA6
:1005D00003F3194390407047202A04DB203A21FAA4
:1005E00002F00021704721FA02F3D040C2F120024C
:1005F0009140084319467047202A06DBCB17203A62
:1006000041FA02F043EAE07306E041FA02F3D04017
:10061000C2F12002914008431946704710B5141EDC
:1006200073F1000408DA401C41F1000192185B41AB
:100630001A4301D120F0010010BD2DE9F04D924682
:100640009B4611B1B1FA81F202E0B0FA80F2203299
:100650009046FFF7B2FF04460F4640EA0A0041EA1F
:100660000B0153465A46084313D0114653EA010082
:1006700019D0C8F140025046FFF7AEFF05460E46BE
:10068000504659464246FFF798FF084305D00120DF
:1006900004E020463946BDE8F08D0020054346EAD7
:1006A000E0762C4337430A986305E40AA0EB080080
:1006B0000022FD0A44EA47540A3002D500200146D0
:1006C000E9E7010510196941DDE9084500196941AB
:1006D000BDE8F04DA2E70000064C074D06E0E068DB
:1006E00040F0010394E8070098471034AC42F6D379
:1006F000FFF74EFDFC3900081C3A0008FEE7000039
:100700000748012200210262C0E904120160416031
:100710008160C160C0E9061201465C3000F0B4B8E7
:1007200088040020014800F0AAB90000E404002079
:10073000014800F0A4B90000E40400200C4B10B5FF
:100740001860586000209860D8600820186103F194
:100750003400084A0068904208D10A460449064B12
:1007600001F1340000F021F8002010BD012010BD7F
:10077000B0040020006400401C00002070470120ED
:1007800000F026BC704790F82020012A07D0022AEA
:1007900005D0416A41F48021416201207047006820
:1007A00042690A43426100207047F0B590F820503A
:1007B0000468A468012D05D0022D03D0416A41F4DC
:1007C00080215DE014F0406F01D1E50055D5C4F300
:1007D0000164022C03D9416A41F4000150E0012573
:1007E000A5401D608D684FF4C0739DB1CE68354340
:1007F0004E6845EAC605066803EB0417F5514FF449
:10080000C275076805EB04150E697E51097D012943
:1008100005D009E00E88CD6845EA4655EBE701684A
:100820004E5946F480764E511179D579567941EA80
:10083000056195792D0445EA062529434FF4C676CE
:10084000056806EB0416A9511178D57841EA0561CF
:10085000957852782D0445EA022211434FF4C4756D
:10086000026805EB04155151006803EB041142586E
:1008700042F0010242500020F0BD416A41F40011F3
:1008800041620120F0BD000010B590F82020012A3F
:1008900007D0022A05D0416A41F48021416201203B
:1008A00010BD3B48D0F8002242F00102C0F80022FF
:1008B000D0F8002222F47C52C0F80022D0F80022A6
:1008C0004B6A42EA0322C0F800220A7D02F01F03AD
:1008D00001229A40D0F81C329343C0F81C32CB69F5
:1008E000B3B9D0F80C329343C0F80C328C894B6802
:1008F00064F31F434C6900EBC404C4F840320C8914
:100900000B6864F31F434C6900EBC404C4F8443221
:10091000CB69012B16D1D0F80C321343C0F80C323E
:100920000C884B6864F31F434C6900EBC404C4F8A3
:1009300040320C89CB6864F31F434C6900EBC4045C
:10094000C4F844328B69002BD0F804320ED0134324
:10095000C0F804320B69002BD0F8143208D01343CE
:10096000C0F81432096A012904D008E09343EFE784
:100970009343F5E7D0F81C121143C0F81C12D0F8CD
:10098000001221F00101C0F80012002010BD00008B
:1009900000640040704730B590F82040012C05D02D
:1009A000022C03D0416A41F480215DE004680029F3
:1009B00055D02469A40754D04FF4D874056804EBCB
:1009C00001142D5915F00405956005682D594ED078
:1009D000ED08556005682C5904F00204D4604FF40A
:1009E000DA74056804EB01142D5905F00F05156143
:1009F00005682D59C5F30725956105682C59240C08
:100A000054614FF4DC72046802EB0112A4581C70AC
:100A10000468A458240A5C700468A458240C9C70D0
:100A20000468A258120EDA704FF4DE72046802EB0A
:100A30000112A4581C710468A458240A5C7104684B
:100A4000A458240C9C710468A258120EDA71006834
:100A500081B1016941F020010161002030BDE468ED
:100A6000A8E7416A41F400114162012030BD6D0DDB
:100A70001560AFE7C16841F02001C160EDE72DE9E5
:100A8000F05F0546006800244669D0F80490876846
:100A9000D0F80CB0D0F810A0D0F81880F10748D0EA
:100AA000F90714D001218160B80703D5284600F06A
:100AB00000FA0CE0780702D54FF4006407E038072D
:100AC00002D54FF4805402E0284600F0F1F9F80511
:100AD00016D529684FF480708860B80503D528467C
:100AE00000F0E9F90CE0780502D544F4005407E081
:100AF000380502D544F4804402E0284600F0DAF9D3
:100B0000F80316D529684FF480308860B80303D500
:100B1000284600F0D2F90CE0780302D544F40044F2
:100B200007E0380302D544F4803402E0284600F0A0
:100B3000C3F9300707D55FEACB6004D529681020D8
:100B400044F40074C86070074FF0080707D55FEAE7
:100B50000B7004D52868C760284600F05FF9B0071D
:100B600006D52868C068800702D0284600F058F9EA
:100B7000700607D55FEACA6004D52968102044F4DE
:100B800080640861B00607D55FEA0A7004D528685A
:100B90000761284600F05CF9F00606D52868006970
:100BA000800702D0284600F054F9B00308D55FEA68
:100BB000C96005D5296810204860284600F04AF928
:100BC000F00307D55FEA097004D528684760284616
:100BD00000F074F9300446D55FEA497040D5F0055D
:100BE00004D55FEAC87001D044F00104B00504D513
:100BF0005FEA887001D544F00204700504D55FEA0D
:100C0000487001D544F00404300529D518F0700F60
:100C100026D008F07000402815D006DC102809D036
:100C200020280AD0302816D10AE050280ED060289B
:100C300011D10EE044F008040DE044F010040AE085
:100C400044F0200407E044F0400404E044F0800451
:100C500001E044F480742868816921F070018161A9
:100C6000296804204860002C05D0686A2043686227
:100C70002846FFF78FFEBDE8F09F70B5040003D053
:100C800094F8200010B104E0012070BD204600F06F
:100C900081F82068016841F00101016000F0AEFABE
:100CA0000546052604E000F0A9FA401B0A2811D8E1
:100CB00020684068C007F6D02068016821F0020172
:100CC000016000F09BFA05460BE000F097FA401B2C
:100CD0000A2806D9606A40F40030606284F8206017
:100CE000D2E7206840688007EFD4207E0128206882
:100CF00001683DD021F080010160607E01282068FC
:100D0000016838D021F040010160A07E01282068F0
:100D1000016833D021F020010160E07E01282068C5
:100D200001682ED041F010010160207F0128206869
:100D3000016829D021F008010160607F0128206846
:100D4000016824D021F004010160D4E902010843C4
:100D5000D4E90412114308436168491E084321681D
:100D6000C86100206062012084F82000002070BD6E
:100D700041F08001C0E741F04001C5E741F02001AA
:100D8000CAE721F01001CFE741F00801D4E741F0B4
:100D90000401D9E710B586B0044614216846FFF770
:100DA00049FA1B49206888422FD11A48002102685D
:100DB00042F000720260006800F000700590154873
:100DC0001038026842F0080202600068022200F057
:100DD000080005900320CDE90210CDE900020920AA
:100DE000049069460C4800F0FFF80022012114200D
:100DF00000F072FA142000F061FA0022114615206A
:100E000000F06AFA152000F059FA06B010BD000093
:100E10000064004040380240000C0240704700006F
:100E200010B5084B084A0021FFF7B5FD002808D08F
:100E300001229102054800F0DCF9BDE81040FFF7FF
:100E4000A1BC10BD54000020C8040020001C0240BA
:100E5000704770477047000070B5044690F8200056
:100E6000012804D0606A40F40020606218E002208B
:100E700084F820002068016821F00101016000F081
:100E8000BDF905460EE000BF00F0B8F9401B0A2886
:100E900008D9606A40F400306062052084F82000C0
:100EA000012070BD20684068C007EDD1606270BD50
:100EB00070477047704770477047704770472DE91B
:100EC000F0410446876D00F099F9064694F8350024
:100ED0000025022806D08020606584F83450012067
:100EE000BDE8F0812068016821F0160101602068EA
:100EF000416921F080014161206C08B9A06C20B1EA
:100F00002068016821F0080101602068016821F073
:100F1000010101600CE000F071F9801B052807D980
:100F200020206065032084F8350084F83450D7E72A
:100F300020680068C007EED194F85C103F2088401C
:100F4000B860012084F8350084F834500020C7E7E9
:100F500090F83510022903D08021416501207047A7
:100F6000052180F835100068016821F00101016059
:100F70000020704770B5044600F040F90546601C3B
:100F800002D004480078044400F038F9401BA04225
:100F9000FAD370BD6400002010B54FF48071094889
:100FA00000F01AF901280CD1C102074800F019F924
:100FB00006480178491CC9B20170022901D90021F3
:100FC000017010BD00000240001C0240040000201F
:100FD000044910B50A68024202D00860FFF7DCFF3E
:100FE00010BD0000143C01402DE9F84FDFF8BCA112
:100FF0000022012503264FF00F090AF1040BAAF184
:10100000040E00BF0B6805FA02F42340A34270D11E
:101010000F7907F00307012F01D0022F16D187683F
:101020004FEA420806FA08FC27EA0C07D1F80CC080
:101030000CFA08FC4CEA070CC0F808C04768A74344
:101040000C79C4F3001494403C4344600C79E443AD
:10105000A4070AD0C4684FEA420C06FA0CF7BC4356
:101060008F6807FA0CF72743C7600C7904F0030474
:10107000022C12D1D40800EB840CDCF82040570776
:10108000FF0E09FA07F824EA0804D1F8108008FADC
:1010900007F848EA0408CCF8208004684FEA420CBC
:1010A00006FA0CF7BC430F7907F0030707FA0CF7B1
:1010B000274307604C6814F4403F70D03C4C2768CD
:1010C00047F480472760246822F0030704F4804433
:1010D0000094384C07EB040CDCF8084897074FEAFB
:1010E000177809FA08F7BC43334FB84202D10027FA
:1010F00024E054E0314FB84201D101271EE0304FC7
:10110000B84201D1022719E02E4FB84201D103277E
:1011100014E02D4FB84201D104270FE02B4FB84205
:1011200001D105270AE02A4FB84201D1062705E080
:10113000284FB84201D1072700E0082707FA08F72F
:101140002743CCF80878DAF800405746D1F804C0B5
:101150009C435FEACC2C00D51C433C60DBF800408C
:101160005F46D1F804C09C435FEA8C2C00D51C4339
:101170003C60DEF800407746D1F804C09C435FEA4B
:101180008C3C00D51C433C60084F083F3C68D1F8BC
:1011900004C09C435FEACC3C00D51C433C60521C1D
:1011A000102AFFF42FAFBDE8F88F0000083C014083
:1011B0004438024000300140000002400004024078
:1011C00000080240000C02400010024000140240DF
:1011D00000180240001C02400069084000D00120B5
:1011E0007047426921EA02030A4043EA02418161F1
:1011F00070470AB1816170470904FBE701488068C4
:1012000070470000640000200248816802781144A1
:1012100081607047640000200B4810B5016841F4FC
:1012200000710160016841F480610160016841F46E
:1012300080710160032000F06FF80F2000F006F8C5
:1012400000F024F8002010BD003C024070B50D4DA8
:1012500004464FF47A712878B1FBF0F00A49096826
:10126000B1FBF0F000F00CFB48B9102C07D20022C3
:101270002146501E00F030F800206C6070BD012047
:1012800070BD000064000020700000200A4808B50E
:10129000016841F480410160006800F480400090E2
:1012A0000548001F016841F080510160006800F0AE
:1012B0008050009008BD000044380240002809DB3F
:1012C00000F01F02012191404009800000F1E02060
:1012D000C0F8001170470000F0B40E4B1B680C46BC
:1012E000C3F30223C3F10705042D00D90425191DFA
:1012F000072901D2002300E0DB1E012606FA05F1D2
:10130000491E214099409E40761E16403143F0BC54
:1013100001F0DABA0CED00E0064900F007020868B7
:101320004FF6FF03184040EA0220034A10430860CA
:10133000704700000CED00E00000FA052DE9F047D1
:101340000E46050065D0DFF81481D8F80000F7B22A
:1013500000F00700B04207D288F80070D8F800000B
:1013600000F00700B04254D128683D4C810712D5E7
:10137000400703D5206840F4E0502060287800073B
:1013800003D5206840F4604020602068A96820F000
:10139000F000084320602878C0072DD030496868E5
:1013A0000839012812D0022813D0032811D0096867
:1013B000890700292DDA216821F00301014321600A
:1013C000FFF71CFF814641F2883A0EE00968890365
:1013D000EFE709688901ECE7FFF710FFA0EB0901CF
:1013E000514502D90320BDE8F0872068696800F004
:1013F0000C00B0EB810FEFD1D8F80010404601F09F
:101400000701B14207D90770006800F00700B04239
:1014100001D00120E7E72878400705D52068E96872
:1014200020F4E050084320602878000706D52068A3
:10143000296920F4604040EAC100206000F038F8DB
:101440002168084AC1F30311515CC840064908608D
:1014500006480068FFF7FAFE0020C4E7003C02409F
:1014600008380240E43900087000002068000020BD
:101470000448054900680968044AC1F38221515CA7
:10148000C84070477000002008380240F439000856
:101490000448054900680968044AC1F34231515CB7
:1014A000C84070477000002008380240F439000836
:1014B000154810B5006810F00C02144813D01449F8
:1014C000042A0FD0082A0ED10F4C241F226823684B
:1014D00002F03F025B0207D52068C0F38810A0FB32
:1014E000010106E0084610BD2168C1F38811A1FB87
:1014F00000010023FEF766FE2168C1F30141491C8B
:101500004900B0FBF1F010BD083802400024F4009F
:10151000001BB7002DE9F84F04006ED02078DFF8EB
:101520004C93C007A9F104054AD009F104000168F1
:10153000C1F38101012908D00068C0F381000228AD
:101540000AD1D9F80000400206D52868800337D5B3
:1015500060680028E1D033E06068B0F5803F10D0CB
:10156000B0F5A02F286810D020F4803028602868BB
:1015700020F4802028606068A8B1FFF73FFE06468F
:101580000DE0286840F48030F4E740F480202860C3
:10159000F7E700BFFFF732FE801B642873D8286886
:1015A0008003F7D50CE0FFF729FE064605E000BFF3
:1015B000FFF724FE801B6428F0D828688003F7D446
:1015C0002078DFF8AC8280074FF0000A3ED5A748AC
:1015D000001D016811F00C0F08D00068C0F38100F5
:1015E00002280BD1D9F80000400207D428688007F0
:1015F00016D5E068012800D112E033E1E068B8B107
:101600000120C8F80000FFF7F9FD064605E000BF1D
:10161000FFF7F4FD801B0228C0D828688007F7D5A3
:101620002868216920F0F80040EAC10028600DE038
:10163000C8F800A0FFF7E2FD064604E0FFF7DEFD74
:10164000801B02281FD828688007F7D4207800075D
:1016500022D5864F87486169703771B101210160D9
:10166000FFF7CCFD064604E0FFF7C8FD801B02280B
:1016700009D838688007F7D50EE0C0F800A0FFF75A
:10168000BDFD064605E082E0FFF7B8FD801B02289D
:101690007DD838688007F7D42078400768D5DFF810
:1016A000CCB100270BF13C0BDBF80000C0000BD4E1
:1016B000DBF8001041F08051CBF80010DBF800009F
:1016C000012700F0805000906B4E3068C00510D4A8
:1016D000306840F480703060FFF790FD009005E0C6
:1016E000FFF78CFD0099401A022850D83068C005D9
:1016F000F6D55E4EA0686C3601280FD005283068FC
:1017000010D020F001003060306820F0040030601C
:10171000A068B8B1FFF772FD00900FE0306840F0AC
:101720000100F4E740F004003060F7E7FFF766FDE2
:101730000099411A41F28830814266D830688007AA
:10174000F4D50EE0FFF75AFD009007E0FFF756FDD5
:101750000099411A41F28830814256D8306880079A
:10176000F4D42FB1DBF8001021F08051CBF8001039
:10177000A069C8B33D49091D0968C1F38101022967
:101780004AD00228504607D0C8F8600000E03CE08C
:10179000FFF734FD04463BE04746C8F86000FFF71A
:1017A0002DFD064605E000BFFFF728FD801B02283F
:1017B0002BD828688001F7D4D4E907010843A16A2F
:1017C0002E4A490802EB0141626A41EA821108434C
:1017D00094F82C1040EA0161C9F800100120386625
:1017E000FFF70CFD044606E03EE000BFFFF706FDF4
:1017F000001B022809D828688001F7D534E000BF13
:10180000FFF7FCFC001B022802D90320BDE8F88F7B
:1018100028688001F4D427E00128F7D0D9F8000027
:10182000E26900F4800191421CD1226A00F03F017C
:10183000914217D147F6C071626A0140B1EB821F35
:1018400010D1A26A4FF0FF3300F4403103EB520293
:10185000B1EB024F06D194F82C1000F07060B0EBA1
:10186000016F01D00120D1E70020CFE7043802400A
:1018700000004742800E4742007000400000FFFF1A
:1018800010B5401EB0F1807F01D3012010BD4FF094
:10189000E02460610F21601701F016F80020A061BC
:1018A00007202061002010BD7047704770B590F888
:1018B0003C20012A32D0012480F83C40022280F8EA
:1018C0003D2003685A689D6822F070060A6832431A
:1018D0005A60134B02689A4214D0B2F1804F11D073
:1018E000104B9A420ED0104B9A420BD00F4B9A429B
:1018F00008D00F4B9A4205D00E4B9A4202D00E4BA5
:101900009A4204D1496825F080031943916080F818
:101910003D40002180F83C10084670BD022070BD9B
:10192000000001400004004000080040000C00409E
:1019300000040140004001400018004010B50400C0
:1019400003D094F83D0010B107E0012010BD002045
:1019500084F83C00204600F01FF8022084F83D0087
:10196000211D206800F0C0FD012084F8460084F8A5
:101970003E0084F83F0084F8400084F8410084F879
:10198000420084F8430084F8440084F8450084F859
:101990003D00002010BD000008B500680B498842DA
:1019A00012D10B48016841F001010160006800227A
:1019B00000F00100009011461920FFF78DFCBDE8F2
:1019C00008401920FFF77ABC08BD00000000014064
:1019D0004438024070B5044690F83C0000250128C8
:1019E00017D0012684F83C60022084F83D0020686E
:1019F000826822F0770222F47F42826008685028D1
:101A000038D00DDC20284FD005DC90B3102811D140
:101A10004AE0022070BD302846D040280AD13BE081
:101A200060282FD070280DD0B0F5805F03D0B0F5BE
:101A3000005F12D0012584F83D60002084F83C004E
:101A4000284670BDCB68D1E90121206800F0B0FDC7
:101A50002068816841F0770109E0CB68D1E9012174
:101A6000206800F0A5FD2068816841F48041816014
:101A7000E1E719E0CA684968206800F0ABFD502131
:101A8000206806E0CA684968206800F0B4FD60215B
:101A9000206800F097FDCEE7CA684968206800F02A
:101AA00099FD40212068F4E7226801461046F0E7DE
:101AB000704770B50446006801694FF00005C943DE
:101AC000890715D4C168C943890711D4E91E01618A
:101AD00001202077206880698007204602D0FFF728
:101AE000E7FF04E000F098F8204600F096F825772C
:101AF00020680169C943490717D4C168C943490728
:101B000013D46FF0040101610220207720688069FE
:101B100010F4407F204602D0FFF7CAFF04E000F037
:101B20007BF8204600F079F8257720680169C943E1
:101B3000090716D4C168C943090712D46FF0080118
:101B40000161042020772068C0698007204602D008
:101B5000FFF7AEFF04E000F05FF8204600F05DF80C
:101B6000257720680169C943C90617D4C168C943EC
:101B7000C90613D46FF01001016108202077206896
:101B8000C06910F4407F204602D0FFF791FF04E0C7
:101B900000F042F8204600F040F8257720680169FF
:101BA000C943C90708D1C168C943C90704D1891EFF
:101BB0000161204600F032F820680169C943090636
:101BC00009D4C168C943090605D46FF080010161D9
:101BD0002046FFF769FE20680169C943490609D418
:101BE000C168C943490605D46FF040010161204630
:101BF00000F015F820680169C94389060BD4C16853
:101C0000C943890607D46FF0200101612046BDE871
:101C10007040FFF74ABE70BD70477047704770470D
:101C200070477047F8B5016804460868CA684B6990
:101C300010F00F0F4FF0000559D003F0010602F429
:101C40009077374365D0C10705D0D10503D5216C06
:101C500041F001012164410705D5D90703D0216C6A
:101C600041F002012164810705D5D90703D0216C19
:101C700041F004012164010707D502F0200131433E
:101C800003D0216C41F008012164216C00293AD075
:101C9000800604D5900602D5204600F0EDFC2068B1
:101CA0004069216CC0F38010090700D460B320465E
:101CB00000F0BBFC20684069400621D52068143044
:101CC00050E8001F21F0400140E80012002AF5D141
:101CD000A06BA8B16C490165A06BFFF739F900282A
:101CE00011D0A06B016D01B0BDE8F040084783063C
:101CF0000FD593060DD52046BDE8F84000F0BCBCDA
:101D00002046FFF78EFFF8BD2046FFF78AFF2564C7
:101D1000F8BD266B2023012E79D1C60677D5D606CD
:101D200075D50868486800904869400640D5A16BA1
:101D3000086840680004000CEAD0A28D8242E7D90E
:101D4000E085C869B0F5807F2DD020680C3050E860
:101D5000001F21F4807140E80012002AF5D12068AC
:101D6000143050E8001F21F0010140E80012002A61
:101D7000F5D12068143050E8001F21F0400140E800
:101D80000012002AF5D184F83E30256320680C301B
:101D900050E8001F21F0100140E80012002AF5D1A0
:101DA000A06BFFF78CF8A08DE18D401A81B229E07D
:101DB000A08DE18D401A81B2E08D0028A8D00029C5
:101DC000A6D020680C3050E8002F22F4907240E832
:101DD0000026002EF5D12068143050E8002F22F0A4
:101DE000010240E80026002EF5D184F83E3025633C
:101DF00020680C3050E8002F22F0100240E8002349
:101E0000002BF5D12046FFF70BFFF8BDFFE70506D5
:101E10002BD5150629D594F83D002128F5D1A068C9
:101E2000B0F5805F01D12069B0B1206A411C216208
:101E3000216800784860E08C401E0004000CE084BB
:101E4000E3D12068C16821F08001C1602068C168C9
:101E500041F04001C160D8E7206A0088C0F3080063
:101E60004860206A801C2062E5E74006CDD5500618
:101E7000CBD5CA68204622F04002CA6084F83D30C3
:101E800000F0A2F9C1E700001B26000870B50400AD
:101E900004D094F83D00002510B106E0012070BD8B
:101EA00084F83C50204600F023F8242084F83D00BC
:101EB0002068C16821F40051C160204600F03CFC5C
:101EC0002068016921F4904101612068416921F095
:101ED0002A0141612068C16841F40051C160256454
:101EE000202084F83D0084F83E00002070BD0000F2
:101EF000F0B587B0044614216846FEF79BF94848C0
:101F0000464B226800244649143802250326072739
:101F10009A4232D10A6842F010020A60096801F060
:101F200010010591016841F002010160016801F0B2
:101F300002010591016841F001010160006802AAF7
:101F400000F0010005908020CDE9000582E8D00076
:101F500069463448FFF748F82802CDE9000502AA8F
:101F6000694682E8D0003048FFF73EF8002211466B
:101F70002520FFF7B1F9252025E02C4B9A4226D1E8
:101F80002749091F0A6842F480220A60096801F49F
:101F900080210591016841F004010160006802AAF6
:101FA00000F0040005904FF44060CDE9000582E8A0
:101FB000D00069461E48FFF717F800221146272077
:101FC000FFF78AF92720FFF779F907B0F0BD194B21
:101FD0009A42FAD10A6842F020020A60096801F0C8
:101FE00020010591016841F0400101600068029400
:101FF00000F0400005904FF48440CDE90005082032
:10200000CDE9036069460C48FEF7EEFF002201218E
:102010004720FFF761F94720D5E700000010014095
:1020200044380240000402400000024000480040E2
:1020300000080240001401400018024090F83E30B1
:10204000202B0ED159B152B190F83C30012B08D061
:10205000012380F83C300023036300F0F3BB012030
:10206000704702207047000070B50646006842497C
:10207000424C434D88421FD12178002204F10A00CE
:102080000F2903D003780F2B03D004E00F23AA609D
:102090000370AB68C154A868401CA860182806DB10
:1020A000B0F57A7F01DDAA6001E001F0E3FA0122D8
:1020B00032493448FFF7C2FF3349306888425AD169
:1020C000217832A000F0F0FB2078312804D10120E3
:1020D000688031A000F0E8FB2078322804D102208B
:1020E00068802EA000F0E0FB2078332804D1032084
:1020F00068802BA000F0D8FB2078342804D104207D
:10210000688028A000F0D0FB2078352804D1052075
:10211000688025A000F0C8FB2078362804D106206E
:10212000688022A000F0C0FB2078372804D1072067
:1021300068801FA000F0B8FB2078382804D1082060
:1021400068801CA000F0B0FB2078392804D1092059
:10215000688019A000F0A8FB2078402804D10A204C
:10216000688016A000F0A0FBBDE870400122034982
:102170001448FFF763BF70BD004800407C0000209A
:102180000400002098050020001001405245562010
:102190003A2025780D0A0000310D0A00320D0A00A0
:1021A000330D0A00340D0A00350D0A00360D0A0001
:1021B000370D0A00380D0A00390D0A0031300D0ABA
:1021C000000000005405002000680349884202D145
:1021D00002A000F069BB7047001001407561727485
:1021E00020747820656E640D0A000000FEE7000090
:1021F0000F4810B50D4901600621416000214FF4E0
:10220000A0228160C0E903124FF4C002426101764E
:1022100041768176C17601774177FEF72EFD002861
:1022200003D0BDE81040FEF7ADBA10BD0064004019
:10223000E404002070B586B014216846FDF7FAFF6B
:102240002F480024016841F040010160016801F05D
:1022500040010591016841F001010160016801F050
:1022600001010591016841F002010160016801F07E
:1022700002010591016841F008010160016801F067
:1022800008010591016841F004010160016801F055
:1022900004010591016841F0800101600068194E58
:1022A00000F080004FF4E0550590002229463046AA
:1022B000FEF79FFF402000904FF48810CDE9010405
:1022C00069461148FEF790FE00950125CDE90154BD
:1022D000694630460394FEF787FE4FF40410CDE9BB
:1022E0000050694609480295FEF77EFE002211461D
:1022F0000620FEF7F1FF0620FEF7E0FF06B070BDF6
:1023000030380240001C0240000C02400000024035
:1023100010B586B0002418480094019402940394E8
:10232000049414490594016044F29F11C0E901141A
:102330000A21C0E903148021C0E90541FFF7FEFA34
:1023400008B1FEF71FFA4FF48050009069460A4822
:10235000FFF740FB08B1FEF715FA049404A90648FC
:102360000594FFF7A3FA002801D0FEF70BFA06B098
:1023700010BD0000000001400C0500200C4810B505
:102380000A4901604FF4E1314160002181600C2273
:10239000C160C0E904128161C161FFF777FD0028C7
:1023A00003D0BDE81040FEF7EDB910BD00100140AC
:1023B000540500200D4810B50B4901600C494160DF
:1023C00000214FF480628160C0E903120C22C0E951
:1023D0000521C161FFF75AFD002803D0BDE8104078
:1023E000FEF7D0B910BD000000480040980500205D
:1023F000A08601000C4810B50A4901604FF4E13194
:102400004160002181600C22C160C0E90412816139
:10241000C161FFF73BFD002803D0BDE81040FEF787
:10242000B1B910BD00140140DC050020FEE7FEE755
:1024300070477047FEF7E8BE30B593B0302168466C
:10244000FDF7F8FE14210CA8FDF7F4FE194800254D
:10245000016841F080510160006800F080501190E7
:102460001548016841F4804101600068022400F4CD
:102470008040119001200090000401908001CDE97E
:10248000064006200890A820CDE9090404200B90FE
:102490006846FFF73FF80CA90F2081E831004FF4A0
:1024A000A0500F90E002109005210CA8FEF746FF07
:1024B00013B030BD4038024000700040024801684F
:1024C00041F470010160704788ED00E010B50448E8
:1024D000FFF7EFFA03480168491C016010BD0000D6
:1024E0000C05002000000020F0B50268254C264DA8
:1024F000264E274F274B4FF0804CA04209D0604515
:1025000007D0A84205D0B04203D0B84201D09842CB
:1025100004D122F0700E4A6842EA0E02A0421BD09B
:10252000604519D0A84217D0B04215D0B84213D098
:10253000984211D0184DA8420ED0184DA8420BD089
:10254000174DA84208D0174DA84205D0164DA842F5
:1025500002D0164DA84203D122F44075CA682A431E
:102560004D6922F080022A4302608A68C2620A68CA
:102570008262A04201D0984201D109690163012120
:102580004161F0BD0000014000040040000800402F
:10259000000C0040000401400040014000440140A4
:1025A0000048014000180040001C0040002000408E
:1025B00010B5846842EA032224F47F440A4322438C
:1025C000826010BD826822F070020A4342F0070167
:1025D0008160704710B5036A046A24F00104046244
:1025E000846924F0F00444EA021423F00A020A4346
:1025F0008461026210BD10B5036A23F01003036208
:102600008369046A23F4704343EA023224F0A0038E
:1026100043EA01118261016210BD10B5806B002197
:10262000C185C184FFF7FDFA10BD01680C3151E886
:10263000002F22F4907241E80023002BF5D10168AD
:10264000143151E8002F22F0010241E80023002B51
:10265000F5D1016B012909D101680C3151E8002F36
:1026600022F0100241E80023002BF5D1202180F850
:102670003E1000210163704708B590F83E102229F2
:1026800001D0022008BD82684FF480539A4201D1E4
:10269000016921B1816A9A421BD04AB10AE00268FD
:1026A000816A5268C2F308020A80816A891C08E0C4
:1026B000026972B10268526802F07F020A70816A90
:1026C000491C8162C18D491E0904090CC18503D0D2
:1026D00019E002685268F1E70168CA6822F0200236
:1026E000CA600168CA6822F48072CA6001684A69D7
:1026F00022F001024A61202180F83E10016B01297D
:1027000003D0FFF7B1FC002008BD00210163016880
:102710000C3151E8002F22F0100241E80023002B79
:10272000F5D101680A68D20602D50A6849680091A5
:10273000818DFFF775FAE6E770B504460068016918
:10274000E26821F44051114301612169A068E26906
:1027500008436169114308432168CA6849F20C6360
:102760009A430243CA6020684169A26921F440711A
:102770001143416131492068884202D03049884282
:1027800002D1FEF785FE01E0FEF772FEE26900234A
:10279000192164253226B2F5004F626828D0A0FBCB
:1027A0000101930F9200FDF70DFD0146B0FBF5F01E
:1027B0006FF01802504301EB800006EB0010B0FBF5
:1027C000F5F000F0F002B1FBF5F002EB0012B1FB06
:1027D000F5F06FF01803584301EB800006EB001092
:1027E000B0FBF5F000F00F0021681044886070BD68
:1027F000A0FB010192185B41FDF7E4FC0146B0FB30
:10280000F5F00201B1FBF5F06FF01803584301EB4E
:10281000800006EBC000B0FBF5F000F0F80002EB22
:102820004002B1FBF5F0584301EB800006EBC0001D
:10283000B0FBF5F000F00700D6E700000010014003
:102840000014014081628285C28500210164222238
:1028500080F83E2080F83C10016921B10168CA6807
:1028600042F48072CA6001684A6942F001024A611A
:102870000068C16841F02001C1600020704700007D
:102880000148FFF7CFB90000540500200148FFF7C9
:10289000C9B90000980500200148FFF7C3B900003E
:1028A000DC050020FEE700000FB4054B10B503A9BE
:1028B000044A029800F028F810BC5DF814FB0000F0
:1028C000052D0008780000200907090E002804DB08
:1028D00000F1E02080F80014704700F00F0000F1D4
:1028E000E02080F8141D704702E008C8121F08C1DC
:1028F000002AFAD170477047002001E001C1121F81
:10290000002AFBD1704700002DE9FF4F8DB09B4698
:102910000F460446002606E025280BD05A460F999C
:102920009047641C761C20780028F5D111B0304601
:10293000BDE8F08F0025A8460122984900E0054334
:1029400014F8013F203B02FA03F00842F7D1207847
:102950002E2817D114F8010F45F004052A280ED0AF
:102960006FF02F022078A0F1300109290AD808EB76
:10297000880102EB410100EB0108641CF2E757F803
:10298000048B641C20786C280DD004DC4C2812D0F9
:102990006A2811D104E074280DD07A280CD10AE0FD
:1029A00045F4001507E0617845F48015814202D1B5
:1029B000641C05F58015641C2078692844D008DC67
:1029C0000028B3D0582867D063280FD0642808D1D6
:1029D0003AE0702865D0732812D075285AD078282C
:1029E0005AD05A460F999047761CD5E017F8040B39
:1029F0008DF8000000208DF80100E946012003E079
:102A000057F8049B4FF0FF3069074FF0000501D4E1
:102A10000AE06D1C45450DDA8542FADB19F8051010
:102A20000029F6D106E06D1C8542FCDB19F8051083
:102A30000029F8D12E4404E019F8010B5A460F99E9
:102A400090476D1EF8D2A7E00A200021CDE90801C9
:102A5000C5F3025002280CD001CFC117021E71F13C
:102A600000020CDA0023D0EB030063EB01012D22FE
:102A700008E0FF1D27F00707F7E80201EEE72A0547
:102A800004D52B228DF8282001223CE0EA073AD019
:102A90002022F7E70A2000E010200021CDE90801FC
:102AA00007E01020002145F00405CDE908014FF0B2
:102AB0000808C5F30250022810D001CF00214FF0C2
:102AC000000A2A0720D52278702A0DD0DDE908C334
:102AD0008CF0100C5CEA030C0CD015E0FF1D27F005
:102AE0000707F7E80201EAE740228DF828204FF0B7
:102AF000010A0CE050EA010306D030238DF828309B
:102B00008DF82920022292462278582A04D024A245
:102B10000DF120090B9209E026A2F9E7DDE908236F
:102B2000FDF750FB0B9B9B5C09F8013D50EA01024D
:102B3000F4D1ADEB090020300890680701D44FF0C4
:102B400001080899884503DD0898A8EB000000E01B
:102B500000208046002506E00AA85A46405D0F99ED
:102B600090476D1C761C5545F6DB04E030205A4634
:102B70000F999047761CB8F10001A8F10108F5DC27
:102B800005E019F8010B5A460F999047761C0899F1
:102B9000481E08900029F4DC641CC4E609280100E2
:102BA00030313233343536373839616263646566C3
:102BB0000000000030313233343536373839414285
:102BC0004344454600000000114910B50A781148F9
:102BD00040F2016452B149784FF0010279B1C11459
:102BE000FEF707FBBDE8104000F02AB801221103F0
:102BF000FEF7FFFA2046BDE8104000F057BB4FF447
:102C00008061FEF7F6FA2046BDE8104000F0B2BA47
:102C100018000020001C0240074808490069421CB7
:102C200006D0012806D0002801D16F200870704717
:102C30000120FBE70220F9E7200600200600002023
:102C400010B52D4C40F20160A168012909D002297C
:102C500010D005294BD006294DD1BDE8104000F019
:102C600055BA00F087FA0220A060BDE810400520A8
:102C7000FEF780B994ED030A9FED201A60EE010A79
:102C800094ED050AF8EEC01A9FED1D0A41EE800A88
:102C9000C4ED030AD4ED041A21EE811AD4ED061A0C
:102CA000F8EEE11A01EE801A84ED041A31EE600AA2
:102CB000BDEEC00A10EE101A30EE810A0029BDEEFA
:102CC000C00A10EE102AC4E9071200DA49420023B4
:102CD000052900DAE361002A00DA5242052A00DA07
:102CE0002362D4E90712BDE8104000F0BFBABDE886
:102CF000104000F023BA10BD18000020E17A743FA4
:102D0000EC51383D08490968C90706D006498039A1
:102D10000968CA074FF0604101D1704700BF0A68D7
:102D2000002AFBD008707047800E00E02DE9FF4FAD
:102D300085B0984FDDE9120400940391CDE90102BA
:102D40000120954EB870954C9B46307000254FF091
:102D50002B094FF0400A4FF0600830780D287DD2E3
:102D6000DFE800F0F8071B36516CF889A4B9CEE310
:102D7000FE0084F8009084F801A084F80280E570D9
:102D800025716571A571E57184490598FDF7D6FC3B
:102D90000A20FEF7EFF80220DBE0232020708320DA
:102DA000607084F80280E5700398207103987B4975
:102DB000000A60710398000CA0710398000EE07186
:102DC0000598FDF7BBFC0A20FEF7D4F80320C0E00D
:102DD000232020708420607084F80280E5700298BF
:102DE000207102986D49000A60710298000CA07170
:102DF0000298000EE0710598FDF7A0FC0A20FEF78E
:102E0000B9F80420A5E0232020708120607084F8A8
:102E10000280E57084F804B04FEA1B2060714FEA2D
:102E20001B40A0714FEA1B60E0715C490598FDF7FB
:102E300085FC0A20FEF79EF805208AE023202070FA
:102E40007A20607084F80280E57001982071019802
:102E5000000A60710198000CA07100E07AE001980E
:102E60004E49000EE0710598FDF768FC0A20FEF758
:102E700081F807206DE02F20207084F8018084F80D
:102E80000280E5700098207100984449000A607142
:102E90000098000CA0710098000EE0710598FDF7F5
:102EA0004DFC0A20FEF766F8082052E084F80090F6
:102EB00084F801A084F80280E57006202071657115
:102EC000A571E57135490598FDF738FC0A20FEF734
:102ED00051F809203DE084F8009084F801A084F8BE
:102EE0000280E570072020716571A571E5712B499D
:102EF0000598FDF723FC0A20FEF73CF80A2028E09D
:102F000084F8009084F801A084F80280E5700F2016
:102F100020716571A571E57120490598FDF70EFCDA
:102F20000A20FEF727F80B2013E084F8009084F8BD
:102F300001A084F80280E5704F2020716571A571B1
:102F4000E57116490598FDF7F9FB0A20FEF712F81E
:102F50000C203070B87800287FF4FFAE002000E02D
:102F600002E009B0BDE8F08F84F8009084F801A079
:102F700084F80280E5705F2020716571A571E571AC
:102F800006490598FDF7DAFB0A20FDF7F3FF3570D7
:102F9000BD70E3E774000020140000204C00002006
:102FA000FEF73AF9FFF748FAFFF744F9FFF720F97F
:102FB000FFF7E4F9FFF7ACF9FFF71CFAFFF7FAF9AE
:102FC000FDF79EFB02214648FDF7DDFB4448FDF777
:102FD00043FF44A0FFF768FC012245494548FFF73D
:102FE0002DF8012242494448FFF728F83C48FDF7F4
:102FF00033FF4FF40065414E6C004FF0010288B37F
:1030000021463046FEF7F5F86420FDF7B3FF3C4F4C
:103010003C4CDFF8F49000254FF002084FF06F0AA7
:103020004FF02B0BE068401CE060FFF7CDFD012066
:10303000FDF7A0FF00224FF480513046FEF7D9F88B
:1030400000224FF400613046FEF7D3F800224FF41F
:1030500080613046FEF7CDF8FFF7DEFD608801287D
:1030600003D009E0FFE72946CBE7032038700121B0
:1030700040F2036000F060FB6088022806D187F808
:103080000080022140F2036000F056FB60880728B0
:1030900001D100F02BFC6088092807D100F0FCFA70
:1030A00000F0A4FA00F0C4FA3D706580A4F802A014
:1030B00089F800B0402189F80110602189F80210D8
:1030C00089F8035089F8048089F8055089F806507A
:1030D00089F807500C496068FDF730FBA2E7000053
:1030E000E4040020776F726B696E6720210D0A007F
:1030F0007C0000209805002054050020001C0240A0
:103100005C000020040000204C0000200A4910B59B
:103110002B220A7040224A7060228A700022CA70F4
:1031200080230B714A718A71CA71FDF707FBBDE8F4
:1031300010400520FDF71EBF4C0000200C4910B5C3
:103140002B220A7040224A7060228A700022CA70C4
:103150000A714A718A71CA71FDF7F0FA04490120B7
:1031600034398870BDE810400520FDF703BF00002A
:103170004C0000202DE9F14F012700254FF02B08CE
:103180002C4C4FF040094FF0600A0EE0012E0CD09D
:10319000022E20D0032E35D0042E04D12548012143
:1031A000343841708570BDE8F88F84F8008084F869
:1031B000019084F802A0E570062020716571A57168
:1031C000E5711C490098FDF7B9FA0520FDF7D2FE1C
:1031D0000226002FE7D084F8008084F8019084F85C
:1031E00002A0E570072020716571A571E571114994
:1031F0000098FDF7A3FA0520FDF7BCFE4FF00F0B7A
:10320000761C13E084F8008084F8019084F802A012
:10321000E57084F804B06571A571E5710549009801
:10322000FDF78CFA0520FDF7A5FE0426002FADD191
:10323000B9E700004C0000200A48C16A0A4811B1F1
:10324000012902D009E0052105E0064A3032D26AA0
:10325000012A02D0012101607047491CFCD10621DE
:10326000F9E70000200600202000002010B50E4BDA
:103270001C1D1960226003F1100123220A70FF2235
:103280004A7060228A700322CA701A780A719A788A
:103290004A7122788A71A278CA71FDF74FFABDE8A7
:1032A00010400520FDF766BE3C0000202DE9F14FDF
:1032B000464C2B20012720700F2060702020A0702A
:1032C0000025E57027716571A571E571BA46214643
:1032D0000098FDF733FA0520FDF74CFE2F202070F3
:1032E00060266670A670E570032020716571A57177
:1032F000E57121460098FDF721FA0520FDF73AFE19
:10330000002F61D04FF0230884F800804FF083092C
:1033100084F80190A67084F803A04FF0640B84F841
:1033200004B06571A571E57121460098FDF706FAB4
:103330000520FDF71FFE002F46D084F8008084F89A
:103340000190A6700220E07084F804B06571A57148
:10335000E571D94621460098FDF7F0F90520FDF703
:1033600009FE002F30D084F8008084206070A670A1
:1033700084F803A084F804906571C346A571B04633
:10338000E571564621460098FDF7D8F90520FDF76E
:10339000F1FD002F18D084F800B08420607084F80C
:1033A00002800220E07084F804906571A571E571D7
:1033B00021460098FDF7C2F90520FDF7DBFD002F3F
:1033C00002D0A4F134000670BDE8F88F4C00002054
:1033D0002DE9F0417A4C2DED048B20780F287CD11B
:1033E000207E002879D17748774D002605F13001FD
:1033F000C0F8006055F8262041F82620761C0C2ED7
:10340000F8DB0660B4F80100C0F30A00C0F57A707A
:10341000FDF7A3F89FED6D9B53EC192BFDF72EF8EC
:103420009FED6C8B53EC182BFCF7B6FFFDF7A6F85D
:103430002860A078E778C00840EA4710C0F30A0087
:10344000C0F57A70FDF789F853EC192BFDF716F8E3
:1034500053EC182BFCF7A0FFFDF790F86860B80953
:103460002179677940EA810040EA8720C0F30A00A9
:10347000C0F59970FDF771F89FED581B53EC112BB7
:10348000FCF7FCFF53EC182BFCF786FF53EC182BD2
:10349000FCF7DBFEFDF772F8A8607808A77940EA30
:1034A000C710C0F30A00C0F57A70FDF756F853EC68
:1034B000192BFCF7E3FF53EC182BFCF76DFF9FED86
:1034C000491B53EC112BFCF761FFFDF757F8E8603F
:1034D000E079390941EA001100E06CE0C1F30A012A
:1034E00040F2B627A1F57A7191FBF7F12961217AB3
:1034F000C00940EA4100617A40EA4120C0F30A0075
:10350000C0F57A70FDF729F853EC192BFCF7B6FFDC
:1035100053EC182BFCF740FFFDF730F86861A05D15
:103520008108A07A41EA8011C1F30A01C1F57A71DC
:1035300091FBF7F1A961E17A400940EAC100C0F5C9
:103540007A70FDF70AF853EC192BFCF797FF53EC50
:10355000182BFCF721FFFDF711F8E861A089C0F3F3
:103560000A00C0F57A7090FBF7F02862607BC10812
:10357000A07B41EA4011C1F30A01C1F57A7191FBC8
:10358000F7F16962E17B800940EA8101207C41EA30
:103590008021C1F30A01C1F57A7191FBF7F1A962AB
:1035A000617C400840EAC110C0F30A00C0F57A709F
:1035B00090FBF7F0E862BDEC048BBDE8F081000001
:1035C000860000206000002020060020000000008F
:1035D00000B08540000000000000594000000000DD
:1035E00000B0954000000000000022400D4810B5DA
:1035F0004021017003214170202181700021C170A0
:10360000017141718171C171014640F20360FDF7A2
:1036100095F80A20FDF7AEFC0348044900790870CC
:1036200010BD00004C0000205400002015000020B8
:103630000D4810B540210170412141706021817019
:103640000021C170017141718171C171014640F267
:103650000360FDF773F80A20FDF78CFC034804496A
:103660004079087010BD00004C000020540000207C
:103670001600002010B5FFF7ABFE00F065F9FFF76C
:10368000DBFD04480078002803D0BDE81040FFF7B8
:10369000C3BA10BD1A000020184810B52B210170C4
:1036A00040214170602181700021C17002220271AD
:1036B00041718171C171014640F20160FDF73EF830
:1036C0000A20FDF757FC0EA0FFF7EEF80B4940F279
:1036D0000260FDF733F80A20FDF74CFC0CA0FFF761
:1036E000E3F8064940F20360FDF728F80A20FDF7E9
:1036F00041FCBDE810400BA0FFF7D6B84C000020FD
:10370000646F6F725F736372616D210D0A00000058
:10371000747269616E676C655F736372616D210DB0
:103720000A0000006269675F62696E5F73637261BD
:103730006D210D0A000000002DE9F34F514E83B0BA
:103740004FF00109884686F8039000244FF0020AE2
:10375000DFF834B14D4F4E4DFFF748FFFFF768FFDC
:103760002878172847D006DC01280BD0022828D05B
:10377000032857D12BE0182845D0192858D01A28EB
:1037800050D167E09BF8000040065FD4B8F1010F0C
:1037900003D0B8F1020F0ED044E03E480078012873
:1037A00002D085F800A03DE03BA0FFF77DF82C702B
:1037B000F4703C8036E037480078022846D0032079
:1037C0002FE034480078022813D0424905E0314800
:1037D000007801280DD03F494942CDE90019C8239E
:1037E00040F2DC524FF4FA710398FFF79FFA17206A
:1037F00017E01A2015E0B8F1010F11D0B8F1020F4F
:1038000010D119200DE09BF8000040061ED5FFF7EF
:1038100003FA38886F28ECD01E4800780128E8D0D9
:1038200018202870F078002896D105B0BDE8F08FF8
:103830009BF80000400609D5FFF7EEF938886F289D
:10384000D7D0144800780228DBD1D2E72C70F4706E
:103850003C80EAE720482B21017040214170602123
:103860008170C47080F804A044718471C4710146F1
:103870000398FCF763FF0A20FDF77CFB17A0FFF716
:1038800013F8E3E774000020160000200600002073
:103890005C000020150000202A2A2A2A2A2A2A2A27
:1038A0002A2A2A2A2A2A2A2A2A2A2A2A636F666682
:1038B00065655F75705F6E6F5F6F7665722A2A2A25
:1038C0002A2A2A2A2A2A2A2A2A2A2A2A2A2A2A2A58
:1038D0000D0A000080A903004C0000207472696189
:1038E0006E676C65206F7665720D0A0010B514481E
:1038F0002B21002401704021417060218170C4702F
:103900008021017144718471C471014640F20160EB
:10391000FCF714FF0A20FDF72DFB094940F2026075
:10392000FCF70CFF0A20FDF725FB054940F2036078
:10393000FCF704FF0A20FDF71DFB0248047010BDD0
:103940004C0000205C00002070B51F4C606A01280C
:1039500031D160684142002801DB024600E00A469E
:103960001A4D00260A2A0BDBFCF7F7FD9FED181B0A
:1039700053EC112BFCF710FDFCF700FE286005E06E
:10398000002800DA08460A2800DA2E60E068414282
:10399000002801DB024600E00A460F4C0A2A0BDB36
:1039A000FCF7DBFD9FED0D1B53EC112BFCF7F4FC3A
:1039B000FCF7E4FD206070BD002800DA08460A2804
:1039C000F9DC266070BD0000200600202C000020DD
:1039D000000000000000F83F300000209A999999FB
:1039E0009999C93F00000000000000000102030493
:1039F0000607080900000000010203041C3A000841
:103A0000000000207C000000E8280008983A000828
:103A10007C000020040A0000F828000800000000D4
:103A2000000000000306000000000000000000008D
:103A30000000000000000000010000000100000084
:103A40000000000000000000000000000000000076
:103A50000000000000000000000000000000000066
:103A6000000000000000000000112233445566777A
:103A7000001122334455667700000000000000006A
:103A80000100000010000000000000000024F4000D
:083A900000000000000000002E
:040000050800018965
:00000001FF
